:100000000C942E020C944B020C94951D0C944B02F4
:100010000C944B020C944B020C944B020C944B022C
:100020000C944B020C944B020C94DF250C94B326D9
:100030000C9452200C944B020C944B020C944B02E7
:100040000C944B020C944B020C944B020C944B02FC
:100050000C944B020C94F5200C944B020C944B0224
:100060000C944B020C944B020C944B020C944B02DC
:100070000C944B020C944B020C944B020C944B02CC
:100080000C944B020C944B020C944B020C944B02BC
:100090000C944B020C944B020C944B020C944B02AC
:1000A0000C944B020C944B020C944B0214001A005B
:1000B000090013000A0004001500160017000700CD
:1000C0001D221B0006001900050000000000392851
:1000D000E2002B420D000F0018001C002A420B000A
:1000E000110008000C0012000E001000360037004E
:1000F00038322C2828412931000000002D022D0023
:100100002E022E0033022F02260227023002310275
:100110002F223400340230003300000000000100C0
:10012000010001003500BC00AE00BB004C002900FE
:100130005000520051004F003502AA00A800A9004B
:100140003132010001000100000000001E021F0208
:100150002002210222021E001F0020002100220096
:10016000E100000000000000235200000000010038
:100170000100010023022402250239002A00230085
:1001800024002500260027002352000036003700F7
:1001900038320100010001000000000000000000F2
:1001A0000000000000003A003B003C003D003E0023
:1001B000440000000000007C01000000000001007D
:1001C00001000100000000000000000000003F00EE
:1001D00040004100420043000000007C000000009D
:1001E00045000100010001000000000000000000C7
:1001F000000000002A2B2800000000000000000082
:100200000000000000000029000000002C1E342027
:10021000212224342627252E362D3738271E1F204D
:100220002122232425263333362E37381F04050692
:100230000708090A0B0C0D0E0F10111213141516D6
:100240001718191A1B1C1D2F3130232D35040506D4
:100250000708090A0B0C0D0E0F10111213141516B6
:100260001718191A1B1C1D2F3130354C00000000C7
:10027000000000000000000000000000000000007E
:10028000000000000000000000000000000000006E
:100290007E0F00D4FFFFFFC7000000781003450069
:1002A000520047004F0020003600390000002203B2
:1002B00041006E006B00690074002000420068007D
:1002C00061006E006B0068006100720069006100EF
:1002D00000000403090409025B00030100A0FA09FD
:1002E0000400000103010100092111010001224065
:1002F0000007058103080001090401000203000052
:1003000000092111010001222200070582032000BB
:100310000107050303200001090402000103000096
:100320000009211101000122B60007058403200005
:100330000112010002000000089897353500010104
:100340000200010660FF0961A1010962150026FF94
:10035000009520750881020963150026FF0095208D
:1003600075089102C005010902A10185020901A1D8
:100370000005091901290815002501950875018155
:10038000020501093009311581257F950275088123
:100390000609381581257F950175088106050C0A27
:1003A00038021581257F950175088106C0C00501B9
:1003B0000980A101850319012AB700150126B7009C
:1003C000950175108100C0050C0901A10185041972
:1003D000012AA002150126A002950175108100C016
:1003E00005010906A1018506050719E029E71500A1
:1003F00025019508750181020507190029EF1500EF
:10040000250195F075018102050819012905950559
:1004100075019102950175039101C005010906A1BD
:1004200001050719E029E7150025019508750181E7
:10043000029501750881010507190029FF1500269D
:10044000FF00950675088100050819012905950525
:1004500075019102950175039101C00011241FBE21
:10046000CFEFDAE0DEBFCDBF11E0A0E0B1E0EAE11E
:10047000F3E502C005900D92AC3BB107D9F722E03D
:10048000ACEBB1E001C01D92A43FB207E1F70E94BE
:100490008E140C9439290C94000084E00895843063
:1004A000B8F46830A8F4453098F450E095E0699FBE
:1004B000400D511D1124FA0198E2899FE00DF11DB4
:1004C0001124EE0FFF1FE455FF4F8591949108957D
:1004D00081E090E0089581E008950E946B02089504
:1004E00081E008950E946B0208950E9472020895AF
:1004F00008950E9478020895A6E0B0E0E2E8F2E0F4
:100500000C94952849835A839E833091C301898135
:100510009A8131111AC03E81332399F0222389F048
:100520000E94E707182F682F89819A810E94C307CC
:1005300069817A81812F0E944C0F2696E3E00C940A
:10054000B1280E94D507182FF3CF0E94E7076981D1
:100550007A81F1CFFC01262F408151816281738124
:10056000848195810E947C020895CF93DF93EC01F2
:1005700061E00E94AA02BE010E946D02DF91CF914C
:100580000895CF93DF93EC0160E00E94AA02BE01C0
:100590000E947902DF91CF91089508950E94BF06CD
:1005A0000E94CD022FEF84E39CE0215080409040D8
:1005B000E1F700C0000008950E94CE020E941921B8
:1005C00008950E94CE020E942A2108950F931F933E
:1005D000CF93DF938C0161E00E94AA02EC01B80185
:1005E0000E948617811106C080E0DF91CF911F9194
:1005F0000F910895B801CE010E9475028823A1F3DE
:10060000B801CE010E94691C882371F3B801CE01A4
:100610000E948518882341F3B801CE010E94D01BA7
:10062000882311F3B801CE010E94AD1C8823E1F2AA
:10063000F8018581882361F0C330FCE7DF07E9F02A
:1006400058F4C115ECE7DE07A9F0C130DC47B9F07A
:10065000C8010E947002C9CFCB358CE7D807A9F03A
:10066000CC35ECE7DE0771F0CA35DC4789F70E942C
:10067000910CEECF0E94DC02B7CF0E94990C0E9431
:10068000E102B2CF0E94870CE3CF0E94950CE0CF2D
:100690000E942F200E946F0308950E9473030E94FE
:1006A00034200895089581E008950895CF93DF934D
:1006B000D82F0E945303C82F882319F08D2F0E9432
:1006C00055038C2FDF91CF9108950895CF93C82FB4
:1006D0000E9452038C2F0E945603CF91089580E010
:1006E0000E94660308950E94BB1E0E94660308953F
:1006F000CF930E94BB1EC82F8091BE018C1779F04A
:10070000C093BE010E94BE206093BF017093C001E0
:100710008093C1019093C2018C2F0E946603CF91F8
:100720000895ADE0B0E0E7E9F3E00C94962848873F
:1007300059876A877B878C879D8791110E94BF0BA1
:100740001F8286E0FE013896DE01119601900D921F
:100750008A95E1F78D8181110DC029813A814B8104
:100760005C816D817E818F810E94F20A2D96E2E08C
:100770000C94B228CE0101960E94B5028111EDCFF2
:10078000F5CFFC012481213021F4808191810E94E8
:1007900014080895662329F00E9412150E94E51599
:1007A00008950E946C15FACFCF93C82F8823B9F013
:1007B0008CEF8C0F813AA8F46C2F809100019091FE
:1007C00001010E94551F882329F08C2F0E947F0B66
:1007D0000E94F80B8C2F0E94770B0E94F80BCF9190
:1007E000089580E28C0F883048F4C77081E001C022
:1007F000880FCA95EAF70E94A20BEFCFEBE5EC0F4A
:10080000E33040F4F0E0EB59FE4F808190E00E942D
:10081000F71EE5CFE8E5EC0FEB3150F4F0E0EE0F1A
:10082000FF1FE15DFE4F808191810E941C1FD7CF89
:1008300083E38C0F833198F661E08C2F0E94CA030A
:10084000CECF882381F19CEF980F913A28F40E9433
:100850007F0B0E94F80B089590E2980F983050F4A7
:10086000877091E001C0990F8A95EAF7892F0E945D
:10087000A80BEFCF9BE5980F933028F490E080E031
:100880000E94F71E089598E5980F9B3128F490E098
:1008900080E00E941C1F089593E3980F933118F491
:1008A00060E00E94CA0308951F93CF93DF93182F2F
:1008B000EB010E94D403209739F4812F0E94210478
:1008C000DF91CF911F9108958FE99FE00197F1F794
:1008D00000C000002197EFCF70E060E0893311F491
:1008E00060E570E00E9454040895882321F00E947E
:1008F000A20B0E94F80B0895882321F00E94A80BF8
:100900000E94F80B0895B0E0A0E0E9E8F4E00C9450
:100910008F286C01D62FC72FFC0115810681029507
:100920000F700E94980BE82E8823E9F0E12E112326
:10093000D1F08C2F807F803451F080E28D0F883091
:10094000F8F0011104C08C2F807E8032C9F08091B4
:10095000D00282FF15C082E00E945B0C0E94980BBF
:1009600091E0E82EE926BC2EB2949FE0B922FBE08C
:10097000FB15B8F1EB2DF0E0E55CF64D0C94792811
:10098000E12CF1CF0C2F0F70C07F11F00295007F8A
:10099000112399F0002359F080E28D0F883010F078
:1009A000D11107C0802F0E94A20B0E94F80B8D2F3F
:1009B0005AC0802F0E94B20BF8CF8D2F0E942104C5
:1009C000002379F080E28D0F883010F0D11104C03F
:1009D000802F0E94A80B03C0802F0E94B80B0E949A
:1009E000F80BEB2DE850FF0B349720F40E94BB1E50
:1009F0000E946603EE2089F00E94940B80FD0DC0DA
:100A0000F60115820E948E0B0E943707C6010E94D4
:100A100086060E948E0B0E944307CDB7DEB7E9E041
:100A20000C94AB282C2F2F70F22EC07FC03219F0FF
:100A3000F29480EFF822DD2341F0D130D1F111237F
:100A400009F444C00023F1F0B2CF8091D00282FDBE
:100A500015C0112359F0FF2029F08F2D0E94A20B01
:100A60000E94F80B80E00E94D403BBCF80E00E947C
:100A70002104FF2009F4B5CF8F2DABCF112369F0EE
:100A8000011104C08F2D0E947504ABCF013009F015
:100A9000A8CF8F2D0E94D60BA4CF0111A2CF8F2DEE
:100AA0000E947C048F2D0E94E20B8F2D0E94C60BAA
:100AB00098CF112321F0063008F093CFE3CF053013
:100AC00008F08FCF8F2D0E947C048BCF0023D1F3B1
:100AD000D93349F43FEF87EE93E0315080409040A6
:100AE000E1F700C000008D2F0E9421047ACF8C2FE7
:100AF00086958695837069F0813009F072CF8D2FCD
:100B00009C2F9370111102C080E090E00E941C1F86
:100B100068CF8D2F9C2F9370111102C080E090E060
:100B20000E94F71E5ECF612F8D2F0E94CA0359CFFE
:100B30008C2F837079F5111154CF4D2F4295469526
:100B40004770440F440F8D2F8F70042E01C0880F03
:100B50000A94EAF72D2F2071D4FF07C02FE030E070
:100B600001C0220F4A95EAF72095C695C695C37035
:100B7000822BC23049F058F4C13019F00E9413079B
:100B800030CF0E940D072DCF0E9419072ACF0E9457
:100B90000A0727CF8695112311F08C2F81708823A7
:100BA00009F41FCF4D2F429546954770440F440FCF
:100BB0008D2F8F70042E01C0880F0A94EAF72D2F15
:100BC0002071D4FF07C02FE030E001C0220F4A950A
:100BD000EAF72095C695C695C370822BC23049F0BE
:100BE00058F4C13019F00E946207FBCE0E945C07E6
:100BF000F8CE0E946807F5CE0E942507F2CECF708E
:100C0000112329F08C2F0E9437078D2F3CCF8D2F79
:100C10000E947C048C2F0E944307E3CED23F41F117
:100C200060F4D03FB9F0D13F81F0112309F446C000
:100C30000111BDCE8C2F8F711FC0D33F01F1D43F66
:100C4000A1F78091D00282FD24C08C2F8F711123D7
:100C500011F312C0112341F0053008F0C2CE8C2FE1
:100C60008F710E945007BDCE063008F0BACEF7CF84
:100C70008C2F8F711111CFCF0E943707B2CE112365
:100C800029F08C2F8F710E942E07ABCE0E942A076D
:100C9000A8CE112349F0CF718C2F0E94370763E053
:100CA0008C2F0E943D0C9DCE81E00E945B0C023097
:100CB00008F497CE82E00E945B0C93CE002359F09B
:100CC000D93309F010CFEFEFF7EE23E0E150F04019
:100CD0002040E1F706CF8C2F8F719DCF0F931F938C
:100CE000CF93DF93EC01688179818D810E941F0889
:100CF0008C010E946E070E940907B801CE010E9474
:100D00008304DF91CF911F910F910895CF93DF93CB
:100D1000EC018C81882399F0CE010E94E6028111BA
:100D200011C00E94980B882351F08D81882339F0DF
:100D30008091D00282FF03C082E00E945B0CDF91B1
:100D4000CF910895CE010E946E06CE010E94C1028D
:100D5000F6CF90E080E00E94F71E90E080E00E94D5
:100D60001C1F0E94BF0B0E94F80B0E9401160E94DC
:100D7000E51508950E94870B0E94A90608950E9418
:100D8000AF0B0E94BA06089592959F70963091F02D
:100D900058F4925F9F70923058F4803F19F030F40D
:100DA000883E30F481E008959A5FF4CF843FD1F318
:100DB00080E00895883EB0F3813FD1F7F3CFFC0186
:100DC0002481222339F0808191810E9414080E949D
:100DD000C406089580E00895A6E0B0E0E2EFF6E0F2
:100DE0000C9496282696E2E00C94B228A7E0B0E096
:100DF000ECEFF6E00C9496282796E2E00C94B228EB
:100E000008950E94000708950E9401078093D4016D
:100E1000089508950E94040708959091D401892BA4
:100E20000E94040708959091D40189230E94040729
:100E300008959091D40189270E94040708950E9483
:100E4000000708950E941F0708950E9422078093BB
:100E5000D301089580E00E942507089591E001C024
:100E6000990F8A95EAF7892F0E942507089521E0B6
:100E700030E001C0220F8A95EAF78091D301822BDE
:100E80000E942507089521E030E001C0220F8A95D5
:100E9000EAF720958091D30182230E9425070895C7
:100EA00021E030E001C0220F8A95EAF78091D3015A
:100EB00082270E94250708959091D301892B0E94D3
:100EC000250708959091D30189230E94250708954D
:100ED0009091D30189270E94250708950895262F10
:100EE000277091E001C0990F2A95EAF723E07695E3
:100EF00067952A95E1F7FB01EE0FFF1FE60FF71F3D
:100F0000E40FF51F50E040E0682F70E08191DF01B1
:100F100011979B01042E02C0369527950A94E2F79B
:100F2000217021952827292328272C934F5F5F4F75
:100F30004330510559F70895A82FA77023E09695DF
:100F400087952A95E1F7FC01EE0FFF1FE80FF91FC7
:100F5000E60FF71F50E040E080E0219130E00A2EDC
:100F600002C0369527950A94E2F721703327042EA4
:100F700001C0220F0A94EAF7822B4F5F5F4F433084
:100F8000510559F70895262F983070F4853060F494
:100F9000682F70E085E0989F600D711D112444EC6E
:100FA00051E0822F0E946F070895292F983068F42E
:100FB000853058F490E064EC71E035E0239F800DBB
:100FC000911D11240E949C07089580E00895CF92FE
:100FD000DF92FF920F931F93CF93DF936C010091E9
:100FE000D3018091D401082BC3E0D0E010E0FC2EA7
:100FF000C8010C2E02C0959587950A94E2F780FDF2
:101000000CC02197A0F7F12C8F2DDF91CF911F916C
:101010000F91FF90DF90CF900895B6018C2F0E9422
:10102000580F019771F3F0CFCF93DF93EC010E943B
:10103000E707BE010E94580FDF91CF9108951F93DB
:10104000CF93DF93EB019091C301992339F0CB014A
:101050000E941408DF91CF911F910895882369F0B1
:10106000CB010E94E707182F682FCE010E94C3070B
:10107000BE01812F0E94580FEDCFCB010E94D507F2
:10108000182FF6CFE1E0F0E0DF0102C0AA0FBB1F8E
:101090006A95E2F7BD01DF0102C0AA0FBB1F4A95A6
:1010A000E2F76A2B01C0EE0F2A95EAF7962F9823F4
:1010B000961302C08E2B0895E0958E230895242F59
:1010C000462F682F8091D3010E9442080E94250775
:1010D00008951F93CF93DF93C091D50117E08091BE
:1010E000D6018C1304C0DF91CF911F910895D0E0F9
:1010F0001C9FF0011D9FF00D1124E952FE4F20812D
:101100003181428153816481758186810E94F60616
:101110002196C770E4CF20910F02309110024091C8
:101120001102509112026091130270911402809189
:1011300015020E94F6060895482F2091D50190913E
:10114000D60157E0291302C080E0089530E0529F95
:10115000F001539FF00D1124E952FE4F8181681375
:1011600006C08081481303C085818111EECF2F5FB7
:101170003F4F2770E7CF8AEA90E00895B0E0A0E003
:10118000E4ECF8E00C94912880911502807F09F03E
:1011900054C080911402882309F44FC0E091D50116
:1011A00087E0D82E8091D6018E1709F446C00E2F05
:1011B00010E0ED9DF0011124E952FE4F8481882357
:1011C00009F440C0D09EE001D19ED00D1124FE0153
:1011D000E952FE4F918180911002981333C09081A3
:1011E00080910F0298132EC0858181112BC0E2805F
:1011F000F3808091110290911202E81AF90A60E0DE
:101200008FE092E00E94AA026FE072E00E94BB08A9
:10121000E816F906B8F4809115028F70806180930A
:101220001502C352DE4F88818F70806188838FE002
:1012300092E00E9486060E946908CDB7DEB7E7E01B
:101240000C94AD28F8013196E770ACCFA4E1B0E082
:10125000ECE2F9E00C9489288C0186E0F801DE01CB
:101260001F9601900D928A95E1F7D80114967C9013
:1012700014971596EC908FE0A82E82E0B82E8091FE
:101280001302811126C0711007C0FF24F3948F2D23
:101290006496EFE00C94A528EE20B9F0C8010E94F6
:1012A000DF06F82E882389F087E0F801AFE0B2E08E
:1012B00001900D928A95E1F78FE092E00E94C103C0
:1012C0000E94BE080E948B08E2CFC8010E948606D9
:1012D000DCCFF80150806180C280D380F09014028E
:1012E00080911102909112024601881A990A60E0D9
:1012F0008FE092E0FF2009F412C10E94AA026FE081
:1013000072E00E94BB088816990608F0B4C07720E6
:1013100009F4BBCF80911502382F307F2091100245
:10132000D80111969C911197311163C0291317C0F0
:1013300020910F029C91291312C0E11054C08F70AC
:101340008061809315020E948B088FE092E00E94DA
:10135000860680911502F8018683F12C98CFE11062
:1013600042C0662D852D0E949C08E82E882371F0CE
:101370008FE092E00E94860687E0EFE0F2E0DF0176
:101380001D928A95E9F70E948B08E7CF5F86688AED
:101390008F8598890E941408292F22952F70243058
:1013A00058F49F70223088F0992399F0F8019681C3
:1013B000907F79F4FE2C6BCF2A5F2F70223068F07B
:1013C000C8010E948606EF2CF5CF992311F08823DF
:1013D00089F3805E883070F3F3CF803F58F3815FEC
:1013E000833070F7E7CF80911502816080931502FA
:1013F000B4CF291315C020910F029C91291310C05E
:10140000E1100EC016968C93C8010E94860687E0F4
:10141000F801AFE0B2E001900D928A95E1F752CF6A
:10142000C8010E94DF06882309F44FCFEE2009F49B
:101430004CCF80911502803288F020910F023091BC
:10144000100239872887DB86CA86909113029C8711
:101450001D868E87CE0108960E94860687E0F801D9
:10146000AFE0B2E001900D928A95E1F70E94BE08CC
:101470000E948B080ACF80911502982F907FA1F4CB
:101480006C2DDA8AC98A452D562D7A89872D9E2D95
:101490000E94EC068FE092E00E94860687E0F5014C
:1014A00011928A95E9F76FCF772009F4EECE20915B
:1014B0001002D80111969C911197291312C0209106
:1014C0000F029C9129130DC0E1100BC016968C934E
:1014D000C8010E94860687E0F50111928A95E9F716
:1014E000D6CEC8010E94DF06882309F4EECEEE2096
:1014F00009F4EBCE80911502803208F4AFCF209131
:101500000F02309110023A832983DC82CB829091C2
:1015100013029D831E828F83CE0101969DCF0E9470
:10152000AA026FE072E00E94BB088816990608F0D4
:1015300049C0772009F4A9CEFE2CEE2009F4C5CECF
:1015400090911002D80111968C91119798132CC08C
:1015500090910F028C91981327C080911102909165
:101560001202C81AD90ABAEACB16D104A0F4909193
:10157000150290FD10C0907F71F080911502F80166
:101580008683903F09F440CF982F907F905F8F70B3
:10159000892B868339CF87E0F801AFE0B2E0019074
:1015A0000D928A95E1F773CEC8010E94DF06811182
:1015B00055CF80911502816080931502C8010E9469
:1015C000860665CE6C2DDA8AC98A452D562D7A8914
:1015D000872D9E2D0E94EC0687E0D5011D928A95ED
:1015E000E9F770CEAEE0B0E0E8EFFAE00C949528B1
:1015F000288739874A875B876C877D878E87CE01EE
:1016000008960E9426098823B1F06C85662341F074
:10161000288539854A855B857D858E850E94F606FD
:1016200017E08091D5019091D60189133DC02E9687
:10163000E3E00C94B12887E0FE013896DE011196B4
:1016400001900D928A95E1F78C85882349F32091CA
:10165000D60130E0C9010196877099274091D501E4
:101660004817190699F097E0929FD001939FB00D0B
:101670001124A952BE4FFE01319601900D929A9508
:10168000E1F78093D6010E946908CACF0E94BF0685
:101690001092D6011092D50187E0EFE0F2E0DF0171
:1016A0001D928A95E9F7BCCF819FC0011124895210
:1016B0009E4F0E942609882309F4B9CFE091D501F5
:1016C0001E9FF0011124E952FE4F20813181428199
:1016D00053816481758186810E94F6068091D501CF
:1016E00090E00196877099278093D5019ACF682F53
:1016F00080910001909101010E94D51F0895682FEB
:1017000080910001909101010E94E31F0895809152
:101710000001909101010E94F11F0895809136020D
:1017200086958695869508958091360287700895EE
:1017300090913602977081E009F480E008958091DD
:101740005A02089590915A02892B80935A02089563
:10175000809590915A02982390935A02089510927E
:101760005A02089590915902892B80935902089545
:101770008095909159029823909359020895109260
:101780005902089508950E94C20B0895909137025E
:10179000292F282331F080958923809337020E94D6
:1017A000C30B089508950E94D20B089590913802BA
:1017B000292F2823281729F0982B909338020E946C
:1017C000D30B089590913802292F282331F080956A
:1017D0008923809338020E94D30B089580913802A8
:1017E000882329F01092380280E00E94D30B0895DC
:1017F000CF93DF93E0910001F091010180915A02B3
:101800008083E0910001F091010180819091590263
:10181000892B808390913802992381F0E091000117
:10182000F09101018081892B80838091000190914A
:1018300001010E94411F81110E94EE0BC091000125
:10184000D091010140E250E066E172E0CE010E94D9
:10185000D128892B59F080E2FE01A6E1B2E0019087
:101860000D928A95E1F7CE010E94CF1EDF91CF91B4
:10187000089508950E94390C08959091D00292FF26
:1018800011C098E0899F90011124622B6093360269
:101890000E943707809136028695869586950E942C
:1018A0003A0C08950E94370708951092360280E09E
:1018B0000E943A0C08959091360280958923809376
:1018C0003602282F277069F4891759F09091D002B9
:1018D00092FF07C08695869586950E9443070E94D1
:1018E000550C08959091D00292FB222720F92817D9
:1018F00069F080FB92F99093D0028091CF02909191
:10190000D0020E94BB0C82E00E945B0C0895809183
:10191000D00282FB882780F991E089270E94720C0F
:10192000089581E00E94720C089580E00E94720C7C
:1019300008956FEF7FEF90E080E00E9423290895E3
:1019400090E080E00E94EF28863E9E4F19F40E94AE
:101950001F17089580E0089582E090E00E94E72834
:10196000089583E090E00E94E728089584E090E0E5
:101970000E94EF280895BC0184E090E00E94232992
:101980000895AB01BC018FE090E00E9417290895F3
:10199000AB01BC0183E190E00E941729089560E04B
:1019A00070E0CB010E94C80C089560E070E0CB01AC
:1019B0000E94C10C0E94CF0C0895A8E0B0E0E3EEB5
:1019C000FCE00C94962866EE7EEF90E080E00E94AA
:1019D000232960E082E090E00E94052960E083E036
:1019E00090E00E9405291092D40160E074E184E047
:1019F00090E00E94232960E086E090E00E940529A3
:101A00006FEF87E090E00E94052940E050E0BA01C6
:101A100088E090E00E94172960E084E290E00E9454
:101A2000052960E087E190E00E94052960E08CE0F4
:101A300090E00E94052960E08DE090E00E94052979
:101A400019821A821B821C821D821E821F821886A6
:101A500048E050E068E170E0CE0101960E94F52870
:101A600040E050E0BA0180E290E00E94172980E057
:101A70000E9438170E9468170E94D50C2896E2E051
:101A80000C94B2280E94DD0C08958EE090E00E9434
:101A9000E72891E0811101C090E0892F0895682F17
:101AA0008EE090E00E9405290895A6E0B0E0EBE505
:101AB000FDE00C9494280E94B2208C0180915B027E
:101AC00090915C028017910781F019821A820E941E
:101AD000B220682F49815A81792F80E090E00E94DE
:101AE000910310935C0200935B022696E4E00C9451
:101AF000B0280E9468106093690270936A02809314
:101B00006B0290936C0260936502709366028093FF
:101B10006702909368020895089508950E948D0DBC
:101B2000089508950E94910D089581E0089582E836
:101B300090E10E94B11E0E948C0D0E948E0D0895AE
:101B40000E9471120895089508950E94A30D0E94A5
:101B5000A40D08950E94A1100E94650308950E949B
:101B6000A9200E9442100E9478170E9497120E949A
:101B7000CF110E94AA0D0E946D180E94A7120E9408
:101B8000920D0895A6E0B0E0E8ECFDE00C948D28FD
:101B90000E94950D81110CC00E94550D0E9471127A
:101BA0000E9423160E9478032696EBE00C94A92845
:101BB0000E94F2118DE5A82E82E0B82E750110E08A
:101BC000F70101917F01812F0E94C4101F5F18301F
:101BD00009F441C00817A1F380916D0281FD0E94B4
:101BE000CA100E94A00DC82E10E099249394812F52
:101BF0000E94C410082FF50181915F01081729F197
:101C0000D02ED826F12CEE24E3948D2D8E21A9F030
:101C1000CC2099F0F9821A830E94B2209C838B8396
:101C20009D8291E0802F8E2109F490E049815A81B4
:101C30006B817C818D810E949103F394EE0CF5E021
:101C4000FF12E3CFF501319700831F5F183079F65B
:101C50000E94790DA3CF0813BFCF9ECF1F93CF93C0
:101C6000DF930E945D0FEC01C11580E5D807F0F508
:101C7000C11580E4D80708F09CC0C03ED10520F50E
:101C8000CD3CD10508F082C0C83AD10578F4C53AF8
:101C9000D10508F073C0C130D10519F1209709F1C1
:101CA000C430D105F0F4D0E0C0E01BC0C33CD10586
:101CB000D0F7C85AD0E0CC0FDD1FC859DE4F0990CD
:101CC000D881C02DD4640DC0C11580E2D80708F0BA
:101CD000D1C0C11581E0D80708F05AC0C83ED1056F
:101CE00010F7CE01DF91CF911F910895C03682E5A4
:101CF000D80718F5C03482E5D80708F06BC0C032A9
:101D000082E5D80708F05FC0C11582E5D80708F45E
:101D100097C02C2F2695269580E2289F90011124AC
:101D20008C2F8370C1E0D0E002C0CC0FDD1F8A95FC
:101D3000E2F7C22BD32BDD68D4CFC03A82E5D807B7
:101D400060F4C03882E5D80708F459C0CF71D0E0FC
:101D5000DC2FCC27C46FD06AC4CFC03C82E5D80743
:101D600008F462C0C03E82E5D80708F09CCFDC2FA3
:101D7000CC27CC27DF71C06FD06AB3CFC55AD0E073
:101D8000C256DE4FC881D0E0D064ABCFD065A9CFBA
:101D90008D2F0E94FF0F182FCE0199270E945D0FF3
:101DA000C12FD0E0DC2FCC27CC27DF71C82BD92B5B
:101DB00098CFCE0199270E945D0FCC27DF70C82BEA
:101DC000D92BD06A8ECFCF71D0E0DC2FCC27C16F5A
:101DD000D06A87CF2C2F26952695277080E2289FE2
:101DE000900111248C2F8370C1E0D0E002C0CC0F91
:101DF000DD1F8A95E2F7C22BD32BDC6872CF2C2F24
:101E000026952695277080E2289F900111248C2F1B
:101E10008370C1E0D0E002C0CC0FDD1F8A95E2F7ED
:101E2000C22BD32BDA685DCF8C2F8F710E94FF0FEE
:101E3000C82FD0E0DC2FCC27CC27DF71D06251CF68
:101E40008C2F8F710E94FF0F55E0D695C7955A953C
:101E5000E1F7CF70D0E0DC2FCC27282F30E084FFD3
:101E600005C044E0220F331F4A95E1F7C22BD32B64
:101E7000D06937CF8D2F8F710E94FF0F182FCE01A1
:101E800099270E945D0FC12FD0E0DC2FCC27CC27F3
:101E9000DF71C82BD92BD2CF462F783030F4653084
:101EA00020F4672F0E94E81A089590E080E00895DA
:101EB0000E944C0F0E942E0E089582389105B9F1B0
:101EC000B0F48133910509F47DC048F4893291055D
:101ED00009F46DC08A32910509F47BC008958533F9
:101EE000910509F45FC08933910509F10895833E96
:101EF0009105D9F138F4803E910529F1823E910592
:101F000079F10895863E9105D9F1873E910509F44E
:101F10003EC0843E910541F52091D00221FF24C0AE
:101F20008091CF0284FD19C087EE90E00895209142
:101F3000CF02237009F05AC02091D00223FF14C0B1
:101F400089E290E008952091CF0220FD38C03091C1
:101F5000D00230FF09C024FF43C090E080E0089524
:101F60002091CF0222FDF7CF08952091CF0222FDCC
:101F70003AC03091D00230FD39C024FFF5CFEDCF0B
:101F80002091CF0223FFF0CF24FDE7CFCDCF2091CA
:101F9000CF0223FD2EC03091D00231FFEECF84EE70
:101FA00090E008952091CF0225FFDECFC9CF209188
:101FB000CF0225FD21C02091D00223FFD5CF89E398
:101FC00090E0D2CF2091CF0226FFCECF8AE290E0E0
:101FD00008952091CF0226FFC7CF81E390E00895B6
:101FE00083EE90E0089582EE90E0089580EE90E018
:101FF000089586EE90E0089585E390E0089590912D
:10200000CF0292FF06C0282F28712830F9F4877F6D
:10201000846093FF06C0282F28712831F1F4877E51
:1020200084612091D00220FF06C0382F38713830EB
:10203000D9F4877F816021FF06C0282F28712831BD
:10204000D1F4877E816194FD877E0895282F2471C5
:102050002430F9F68B7F8860DCCF282F247124315F
:1020600001F78B7E8861DDCF382F3171313019F760
:102070008E7F8860E0CF282F2171213121F78E7E5D
:102080008861E1CF1092CB021092CC021092CD0267
:102090001092CE020895CF92DF92EF92FF926B01E1
:1020A0007C010E94711281110EC00E94BE20C61ACE
:1020B000D70AE80AF90AC092CB02D092CC02E09289
:1020C000CD02F092CE02FF90EF90DF90CF90089576
:1020D0000F931F930E947112882329F00E94BE2043
:1020E0001F910F9108950E94BE200091CB02109184
:1020F000CC022091CD023091CE02600F711F821F61
:10210000931FEECF80E008950E94990C08950E94DD
:10211000F2112FEF86E791E0215080409040E1F7E7
:1021200000C000000E94F21180E00E94C41080FFF5
:1021300004C00E9484100E94192108950E948710F3
:1021400008950E94A00C811102C00E94420D0E94BD
:10215000AC0C80936D020E94B60C9093D0028093D9
:10216000CF020E949E100E94B10C0E940A0780912B
:10217000D3010E942207089508950E94BC1008957B
:1021800008950E94C0100895E82FF0E0E652FD4F38
:1021900080810895089580EA8A95F1F7089500C036
:1021A00008950E94CB10089508950E94D4100895B8
:1021B000EF92FF921F93CF93DF9300D000D0CDB763
:1021C000DEB70E947112182F6091E202882309F491
:1021D00047C019821A821B821C82862F90E09E01C2
:1021E0002F5F3F4F7901B90186529D4F0E94B51272
:1021F0008823E9F08091D10290E044E050E0B701FB
:1022000086529D4F0E94D12821E020936E02892B97
:10221000C9F410E00E94C110812F0F900F900F9011
:102220000F90DF91CF911F91FF90EF9008958091D3
:102230006E02882371F384E0F70111928A95E9F721
:1022400010926E02E091D102F0E0E652FD4F8981DA
:102250009A81AB81BC8180839183A283B383DACFDF
:1022600070E066527D4F8091D10290E086529D4F82
:102270000E943C130E94D510CFCFF894E82FE2952E
:10228000EF70F0E031A1282F2F7081E090E001C0C5
:10229000880F2A95EAF7982F9095932391A392A1FE
:1022A000892B82A378940895CF93DF9381E30E94D2
:1022B0003D1183E30E943D1182E30E943D1186E3BC
:1022C0000E943D11C1EAD1E089918F3F11F00E9437
:1022D0003D1181E0C63AD807B9F7DF91CF91089553
:1022E000B0E0A0E0E6E7F1E10C949028EC01D62EF6
:1022F000062F10E0C8018A559E4F7C01FC018081A9
:102300008F3F09F445C0F894E82FE295EF70F0E0B4
:1023100091A18F7021E030E001C0220F8A95EAF789
:10232000892F822B81A382A12095282322A3789430
:102330000E94CF10E1EAF1E046EA51E031E0C12C21
:1023400021912F3F51F1A22FA295AF70B0E090964E
:102350008C9190E02F7002C0959587952A95E2F7B1
:1023600080FD1BC0832FC82A330F4E175F0741F72C
:10237000F70180818F3F11F00E943D1161E0C11093
:1023800001C060E08D2D0E94D110C00FD11FC88206
:10239000CDB7DEB7E8E00C94AC2880E0E4CF8091C4
:1023A00002018091020194E0811190E09093E20299
:1023B00084E0891B8093D1020E94541188E0EAEDE9
:1023C000F2E0DF01982F1D929A95E9F7E2EDF2E035
:1023D000DF011D928A95E9F784E00E9430120E9485
:1023E000BD100895A8E0B0E0E8EFF1E10C94932867
:1023F0008E010F5F1F4F88E0F80111928A95E9F76F
:10240000F12C6F2DC8010E947011F394F4E0FF12BB
:10241000F8CF48E050E0B80182ED92E00E94D12868
:1024200021E0009709F420E0892B41F088E0F801D1
:10243000A2EDB2E001900D928A95E1F76091E2027F
:1024400070E066527D4F44E082ED92E00E943112CE
:10245000182F0E94D810812B2896E5E00C94AF2805
:102460000895CF92DF92EF92FF920F931F93CF9335
:102470006C017B01042F222349F081E080937102DB
:102480000E94B2209093700280936F02C0917102FB
:10249000C1110AC0C0E08C2FCF911F910F91FF9006
:1024A000EF90DF90CF90089580916F02909170022D
:1024B0000E94CA20059770F310E0A801B601C70179
:1024C0000E94D128892B41F0A801B601C7010E94C2
:1024D000DE2810927102DFCFC0E0FBCF0E94450DD5
:1024E0000895CF93DF9380917402811117C0C8ECD7
:1024F000D0E00E945F2881110EC08FE39CE9019714
:10250000F1F700C000002197A1F782E080937402E8
:102510000E945A2803C081E08093740281E0909168
:102520007402913009F080E0DF91CF9108950E940C
:10253000A00C811102C00E94420D0E946E12809375
:1025400002010E94711281110E94EB1208950E94F3
:102550007112811102C00E94EE12089581E09091E3
:1025600075029A3008F080E008950F931F93CF937F
:10257000DF93EC018B01809175028A30B8F4B801C9
:10258000CE010E943913C82F811122C0809175029B
:102590008F3FB9F40E94B22090937302809372022D
:1025A0008C2FDF91CF911F910F910895809172022E
:1025B000909173020E94CA20843F914000F7C0E0CE
:1025C000EFCF8F5F809375028A3020F7C1E0E8CFAC
:1025D00010927502E5CF0E944F1D08950E94521D72
:1025E0000895B0E0A0E0E7EFF2E10C9491287901C2
:1025F000C82F880FDD0B41155105A9F0FE0193E0AE
:10260000EE0FFF1F9A95E1F7ED5FFE4F81819281FA
:102610008A589D4F208130E04217530708F49A01F1
:10262000A9010E94DE28CE010E943B1ED82E8823DD
:10263000D1F001151105B9F083E0CC0FDD1F8A95AB
:10264000E1F7FE01ED5FFE4F438150E004171507EF
:1026500008F4A801CD5FDE4F6C817D816A587D4F03
:10266000C7010E94DE288D2DCDB7DEB7E7E00C94C0
:10267000AD280E94331408950E944A140895A4E0DE
:10268000B0E0E5E4F3E10C94942860918B02709142
:102690008C0280918D0290918E020E94D92011E0CF
:1026A000643671058105910518F10E9468106E5F0E
:1026B0007F4F8F4F9F4F69837A838B839C8310E07A
:1026C00000E030E020E044E050E0BE016F5F7F4F6B
:1026D00082E00E94F112182F882351F00E94BE2040
:1026E00060938B0270938C0280938D0290938E0284
:1026F000812F2496E4E00C94B028B0E0A0E0E3E859
:10270000F3E10C948E287C015B016A010E94AE12F9
:1027100001E010E0882311F00AE010E0C1E0D0E011
:10272000B501C701F6010995811104C021960C1766
:102730001D072CF4CDB7DEB7EAE00C94AA28CC9F95
:102740009001CD9F300D300D112490E080E045E3E5
:102750004A95F1F70000019682179307C1F7E0CF81
:10276000A5E0B0E0E6EBF3E10C948E285B01E0908D
:10277000AA01F090AB0101E010E09E012B5F3F4FFA
:1027800050E040E070E060E080E00E94F112182F1D
:10279000882309F44BC067018FEFC81AD80A6091EB
:1027A0008702709188028091890290918A020E942A
:1027B000D920643671058105910580F104E010E0AF
:1027C0009E012F5F3F4F50E040E070E060E081E00D
:1027D0000E94F112F82E64E070E0C6010E946E18AB
:1027E00011E09D81981310E01F2159F10E94BE2035
:1027F00060938702709388028093890290938A0283
:1028000089819A81AB81BC818093830290938402F9
:10281000A0938502B093860211E013C064E070E0DB
:10282000C6010E946E189D818913C8CFF70181816E
:102830009281A381B48189839A83AB83BC83111174
:10284000DFCF8091830290918402A0918502B091A4
:102850008602F50180839183A283B383812F25961D
:10286000EAE00C94AA280F931F93CF93DF93EC0117
:102870008B0140EB53E10E947D13882331F04FE33D
:1028800053E1B801CE010E947D13DF91CF911F91DA
:102890000F9108950F931F93CF93DF93C091AA01D7
:1028A000D091AB01CE01019624E0FB01DC01019047
:1028B0000D922A95E1F764E070E00E946E1888831B
:1028C0006D817E818F81988500917F0210918002B9
:1028D000209181023091820260177107820793076D
:1028E00051F060937F0270938002809381029093F5
:1028F00082020E944B10DF91CF911F910F9108959A
:102900000E94B4220E94AF0D0E94C12208950E942D
:10291000C6220E94C20D0E94E02208950E944B2010
:102920000E949A220E94970D0E9480140E94871490
:102930000E94A50DFBCF8091950280FF0DC0609194
:10294000200170E0660F771F6038710570F5611522
:10295000710569F1862F089581FF07C060912001FC
:1029600084E0689FB0011124EFCF6091200182FDC7
:102970000AC0809194028823A9F020911F016091E0
:102980002001821710F088E0ECCF869FC00111244F
:1029900033E0880F991F3A95E1F7622F70E00E94AB
:1029A0006528D2CF68E070E0D5CF8FE7089581E049
:1029B00008958091950280FF0CC060911C0170E029
:1029C00075956795759567956115710549F1862F20
:1029D000089581FF06C060911C0170E075956795B0
:1029E000F3CF60911C0182FD0BC09091930299235B
:1029F000A1F060911B0180911C01961738F0682F9F
:102A000070E06038710500F38FE70895899FC00179
:102A1000112470E00E946528F4CF61E070E0D7CF08
:102A200081E008958D3C31F40E949B148195809340
:102A3000990208958E3C19F40E949B14F8CF8F3CA4
:102A400031F40E949B148195809398020895803DF3
:102A500019F40E949B14F8CF893D29F40E94D914DF
:102A600080939A0208958A3D21F40E94D914819599
:102A7000F7CF8B3D31F40E94D914819580939B024E
:102A800008958C3D19F40E94D914F8CF9FE2980F55
:102A9000983070F4815D990B21E030E001C0220F85
:102AA0008A95EAF780919702822B80939702089586
:102AB0008D3D31F480919502816080939502089557
:102AC0008E3D21F4809195028260F7CF8F3DB9F75A
:102AD000809195028460F1CF409198028D3C59F429
:102AE0008091990287FF0DC01092990241110BC08D
:102AF0001092940208C08E3C81F4809199021816BD
:102B00009CF3442381F080919A0290919B02892B3F
:102B100009F05AC01092930208958F3C49F447FF80
:102B2000F0CF10929802809199028111ECCFE0CF02
:102B3000803D19F41416ACF3E4CF90919A02893DCC
:102B400029F41916F4F610929A02DBCF8A3D19F493
:102B500097FFD7CFF8CF90919B028B3D29F497FF39
:102B6000D0CF10929B02CDCF8C3D19F41916CCF327
:102B7000C8CF9FE2980F983090F4815D990B21E0C7
:102B800030E0B90102C0660F771F8A95E2F7CB01EA
:102B9000809590919702892380939702B2CF8D3DC3
:102BA00031F4809195028E7F80939502AACF8E3D5D
:102BB00021F4809195028D7FF7CF8F3D09F0A1CF51
:102BC000809195028B7FF0CF08950E94B2209C01E6
:102BD0009091980280919902982B21F03093920263
:102BE0002093910290919A0280919B02982B21F060
:102BF0003093900220938F0286E992E00E94E91EB2
:102C0000089586E0E6E9F2E0DF011D928A95E9F792
:102C10001092940210929302109295020895FC0172
:102C2000828181110EC0838181110BC08481811149
:102C300008C091E08581811101C090E0892F8170E9
:102C4000089581E0FCCFA6E0B0E0E9E2F6E10C9463
:102C5000952886E0E6E9F2E0DE01119601900D92FA
:102C60008A95E1F7109298021092990210929A02B6
:102C700010929B028B819C81892B89F0809191021B
:102C8000909192020E94CA20AC01909194029923E3
:102C9000C9F1809121018417150608F440C08D8187
:102CA0009E81892B91F080918F02909190020E94D9
:102CB000CA20AC0190919302992309F471C08091CC
:102CC0001D018417150608F479C0BE016F5F7F4FA0
:102CD00086E992E00E940320811105C086E992E016
:102CE0000E940F1681110E94E51586E0FE013196C3
:102CF000A6E9B2E001900D928A95E1F72696E3E00D
:102D00000C94B128209122018AE0289F900111247F
:102D10002417350720F69F5F9093940202C09F3FCF
:102D2000D1F71B81112359F00E949B149FEF1116BC
:102D30000CF491E0899F802D1124809398021C81CE
:102D4000112359F00E949B149FEF11160CF491E08F
:102D5000899F802D1124809399023091980233230A
:102D600009F49DCF20919902222309F498CF45EBD5
:102D70003403C0011124992359F09093980245EB34
:102D8000240390011124332339F03093990287CF23
:102D900081E080939802F3CF81E0809399027FCF06
:102DA00020911E018AE0289F9001112424173507E5
:102DB00008F08BCF9F5F9093930202C09F3FD1F7A3
:102DC0001D81112359F00E94D9149FEF11160CF4A4
:102DD00091E0899F802D112480939A021E811123F6
:102DE00059F00E94D9149FEF11160CF491E0899FBD
:102DF000802D112480939B0230919A02332309F491
:102E000064CF20919B02222309F45FCF45EB34036A
:102E1000C0011124992359F090939A0245EB2403A1
:102E200090011124332339F030939B024ECF81E07F
:102E300080939A02F3CF81E080939B0246CF85E294
:102E400090E00E94E728833289F486E290E00E94B5
:102E5000E728823159F487E290E00E94E72891E068
:102E6000823109F090E0892F8170089580E0FCCFD5
:102E7000CF93C82F6FEF811163E285E290E00E944B
:102E80000529C1110DC0CFEF6C2F86E290E00E94A2
:102E900005296C2F87E290E00E940529CF910895C3
:102EA000C2E1F2CF089588E290E00E94E728682FFF
:102EB00070E090E080E008950895CF93C62F0E94BF
:102EC0005C176C2F88E290E00E940529CF9108954D
:102ED00080E00E94381760E070E0CB010E945D172F
:102EE0000E94741A0E94431B81E00E9438170895C3
:102EF0000E9452170E9453170E945C170E941F17CE
:102F0000811102C00E946817089508959C01FB0179
:102F10008581882351F0A90157574038510530F475
:102F2000822F0E94531B80E0089581E008952FEFC7
:102F3000FC01208308950E949717089580E008956A
:102F4000B0E0A0E0E6EAF7E10C949028EC01E62E70
:102F50000E949E17811110C0E881E150E331B8F45E
:102F6000F0E0E95BF64D0C94792819828CE08A83B5
:102F70006E2DCE010E948E21CDB7DEB7E8E00C9415
:102F8000AC2889818230C1F028F4813061F08FEF64
:102F90008883EECF833099F08430C9F71A821B8280
:102FA0001C821D82E5CF0E94BE200E947F286A837A
:102FB0007B838C839D83DCCF0E945317F6CF8A815D
:102FC000082F10E06E0193E0C90ED11C9CE1F92E90
:102FD000F80E0830110560F6802F0E94C410F6012B
:102FE00081936F010F5F1F4FF012F3CFC1CF898123
:102FF000823031F0853059F68A810E948517B8CF2A
:103000006A817B818C819D810E947F280E945D174F
:10301000AFCF4B816A8189810E94361A9827892710
:1030200098279D838C83A4CF2C813D813227232731
:1030300032274B816A8189810E94581A99CF0E9458
:10304000741A96CF6E2DCE010E949B1791CF0E94CD
:10305000F41A89838DCF0E94F61A9827892798271A
:103060009A83898385CF6B8170E089819A81AE01D3
:103070004C5F5F4F9827892798270E94F91A78CFCD
:103080006B8170E089819A81AE014C5F5F4F982718
:10309000892798270E941E1B6BCF0E94431B68CF75
:1030A0000E94241AD6CF6B8170E089819A81AE018B
:1030B0004C5F5F4F9827892798270E94A01A58CF06
:1030C0006B8170E089819A81AE014C5F5F4F9827D8
:1030D000892798270E94C41A4BCF0895FC01680FD6
:1030E000791F8FEF91E36E177F0709F408952191FF
:1030F000822728E030E087FF06C0880F892721500B
:103100003109C9F7F0CF880FFACFCF93DF93EC01E5
:10311000FB018581882309F4D2C09E0130572332F8
:10312000310508F0B2C00E94B60C9093D002809393
:10313000CF02FE01E150F047E232F10520F4E65AF9
:10314000F64D0C9479288091CF0281608093CF0254
:1031500093C08091D00288608093D0028DC080910E
:10316000CF028260F3CF8091CF028460EFCF809155
:10317000CF028860EBCF8091D0028160EDCF80914B
:10318000D0028260E9CF8091CF028061DFCF809151
:10319000CF028062DBCF8091CF028064D7CF0E94C4
:1031A000BF068091CF028068D1CF8091CF028C6022
:1031B000CDCF8091D0028360CFCF8091CF028E7F20
:1031C000C5CF8091D002877FC7CF8091CF028D7FFE
:1031D000BDCF8091CF028B7FB9CF8091CF02877F07
:1031E000B5CF8091D0028E7FB7CF8091D0028D7FF6
:1031F000B3CF8091CF028F7EA9CF8091CF028F7DF8
:10320000A5CF8091CF028F7BA1CF0E94BF06809176
:10321000CF028F779BCF8091CF02837F97CF809112
:10322000D0028C7F99CF8091CF0282FB992790F9B1
:1032300021E0922790FB82F990FB83F987CF809160
:10324000D002982F909591708E7F892B90FB81F9F9
:1032500083CF9091CF02892F8F7B96FF806476CFAA
:103260000E94BF069091CF02892F97FB87F9805863
:103270006DCF81E00E944F0D8091CF029091D002DE
:103280000E94BB0C0E94BF0680E0DF91CF910895A1
:1032900080E0F0CF9091CF02892F8F7E94FF8061E4
:1032A00055CF9091CF02892F8E7F90FF81604ECFB6
:1032B0009091D002892F877F93FF88604DCF81E066
:1032C000E4CFB0E0A0E0E7E6F9E10C949128E82F24
:1032D000F0E0E451FE4FD490282F269526952695B0
:1032E00030E0F901E457FD4F0491877010E0082E9B
:1032F00002C0159507950A94E2F701701127F901AC
:10330000E458FD4FE490F12C082E02C0F594E794A8
:103310000A94E2F791E0E922FF24F901E459FD4F14
:10332000C491D0E002C0D595C7958A95E2F7C170E7
:10333000DD270115110519F081EE0E94D403E11477
:10334000F10419F086EE0E94D4038D2D0E946C04C6
:10335000E114F10419F086EE0E9421040115110513
:1033600019F081EE0E942104CD2B19F08CE20E940D
:103370006C04CDB7DEB7E7E00C94AD28EF92FF9276
:103380000F931F93CF93DF93EC01162F0AE08881F0
:10339000882309F454C0813009F04EC089818130FE
:1033A00099F47E0122E0E20EF11C8A810E946C04F5
:1033B000E7012196812F815050F3EFE9FFE031972B
:1033C000F1F700C00000F7CF823041F47E0182E0C7
:1033D000E80EF11C8A810E94D403EACF833041F4C5
:1033E0007E01E2E0EE0EF11C8A810E942104E0CF12
:1033F000843011F02196DDCF2A81229690E080E082
:10340000AE014F5F5F4F2053330B2A30310548F038
:10341000019778F2EFE9FFE03197F1F700C0000083
:10342000F7CF089FB001099F700D1124C901860FC5
:10343000971F2981EA01E4CF0E946119BACFCDB765
:10344000DEB7E6E00C94AE2884E0089550E0440F27
:10345000551F9AE0699F400D511D112490E5899FE9
:10346000400D511D1124CA01899608950F931F9391
:10347000CF93DF938430C8F46830B8F44530A8F4B3
:103480000E94261A8C010E94E728C82FD0E0DC2F6A
:10349000CC27C80101960E94E7289E01282BC9016C
:1034A000DF91CF911F910F91089590E080E0F8CFC8
:1034B0000F931F93CF93DF93122F032F843078F451
:1034C000683068F4453058F40E94261AEC01602FE9
:1034D0000E940529612FCE0101960E940529DF91E6
:1034E000CF911F910F9108950F931F93CF93DF9367
:1034F000D0E0C0E010E019C00E944D0221E030E0B1
:103500008C171D0639F034F0402F612F8C2F0E944C
:103510004F029C01402F612F8C2F0E94581A0F5F81
:10352000053051F71F5F183011F000E0E5CF21960C
:10353000C430D105F9F6DF91CF911F910F91089515
:10354000EF92FF920F931F93CF93DF93EC018A01C9
:103550007C01E60EF71ECE018996CE15DF0529F413
:10356000CDB7DEB7E6E00C94AE28C03421E0D20738
:1035700040F40E94E728F80180830F5F1F4F2196D7
:10358000EACFF8011082F9CFB0E0A0E0EAECFAE16E
:103590000C9490287C016A018C01060F171FEC0126
:1035A000CE018996C017D10729F4CDB7DEB7E8E080
:1035B0000C94AC28C03421E0D20740F4FE01EE198F
:1035C000FF09EC0DFD1D60810E9405292196E8CFC1
:1035D000843038F4683028F4453018F40E94361AE4
:1035E000089590E080E0089580E1089587E992E0F1
:1035F0000895EF92FF920F931F93CF93DF93EC0107
:103600008A017C01E60EF71ECE0187599E4FCE152A
:10361000DF0529F4CDB7DEB7E6E00C94AE28C73954
:1036200022E0D20740F40E94E728F80180830F5F70
:103630001F4F2196E9CFF8011082F9CFB0E0A0E04A
:10364000E4E2FBE10C9490287C016A018C01060FF6
:10365000171FEC01CE0187599E4FC017D10729F4DF
:10366000CDB7DEB7E8E00C94AC28C73922E0D2072A
:1036700040F4FE01EE19FF09EC0DFD1D60810E9472
:1036800005292196E7CFCF93DF93C9E6D1E060E02B
:10369000CE010E9405292196C11584E0D807B9F70B
:1036A000DF91CF910895A8E0B0E0E9E5FBE10C944B
:1036B0008E28F82E8FE08F1508F46EC08FEF93E000
:1036C0000E94E728811168C009E611E0F11035C0B9
:1036D000FE0131966F0188E011928A95E9F7780131
:1036E000FFEFEF1AFF0AC8010E94E72889831A82B8
:1036F000882309F451C08130D1F4580182E0A80E2A
:10370000B11CC7010E94E7288A83882309F444C0BA
:103710009FEF980F9330F0F4780193E0E90EF11CDD
:10372000C5010E94E7288B838823B1F11C8260E0E9
:10373000C6010E94BE198701D2CF011594E0190776
:1037400059F1C8010E94E728811101C0FA940F5F66
:103750001F4FBCCF7501843051F702E010E07501B6
:10376000EFEFEE1AFE0AC5010E94E728F601E00F0E
:10377000F11F8083882381F08C3741F4E2E0F0E090
:10378000EC0FFD1FE00FF11F1082D1CF0F5F1F4F15
:1037900057010730110519F72896EAE00C94AA287A
:1037A000CF93DF93EB0186319C4711F50E949F0B6D
:1037B0009D81992399F08A7A91E009F490E09093A1
:1037C0009C02811109C089E20E94770B0E94F80BCC
:1037D00080E0DF91CF91089585E3F6CF80919C0240
:1037E000811104C089E20E947F0BF0CF85E3FBCFFB
:1037F00081E0EFCFB0E0A0E0E0E0FCE10C948E28A7
:103800007C015B01C42FD22FFC0185818823C9F084
:1038100040939F020E94B22090939E0280939D024B
:1038200080E28C0F883040F4C77081E001C0880FBF
:10383000CA95EAF70E947504CDB7DEB7EAE00C94AA
:10384000AA2810919F02141338C080919D02909174
:103850009E020E94CA206C01B701C5010E94BB08EC
:10386000C816D90650F5C0E2CD0F1D17C1F080E291
:10387000810F883048F4177081E0012E01C0880F55
:103880000A94EAF70E947C04C83048F481E09D2F36
:10389000977001C0880F9A95EAF70E947504802FEF
:1038A0000E946C04C83040F6D77081E001C0880FD8
:1038B000DA95EAF70E947C04BFCF80E28C0F883053
:1038C00008F0BACFC77081E001C0880FCA95EAF747
:1038D000F1CF0F93DB0188519C4787309105A0F50C
:1038E000FC01E458F64D0C94792806E221EE41EEF5
:1038F0006AE17CE7CD010E94FA1B80E00F910895F8
:1039000007E225EE45EE6BE17CE7F4CF06E221EE1F
:1039100040EE68E17CE7EECF07E225EE44EE69E198
:103920007CE7E8CF06E221EE42EE6CE17CE7E2CFF5
:1039300007E225EE46EE6DE17CE7DCCF08E221E010
:1039400045EE6EE17CE7D6CF15968C91882319F071
:1039500010929F02D3CF81E0D1CF1F93CF93DF93FB
:1039600087372CE7920759F0C1E088379C47E1F48C
:10397000FB01C581CC2371F10E94F01C06C0FB0144
:10398000C581CC23B1F00E94ED1C0E9437070E9434
:10399000F31CD82F0E94F01CC82F0E94ED1C4D2F45
:1039A0006C2F0E945F08C0E08C2FDF91CF911F9198
:1039B00008950E94ED1C0E9443070E94F31C182FDB
:1039C0000E94F01CD82F0E94ED1C412F6D2F0E94E9
:1039D0005F08EACF0E94F01CEECF80912501089588
:1039E0008091240108958091230108958EE1499BDF
:1039F00002C08150E1F7499BFECF0895599880E2BB
:103A00008A95F1F7599A0895FC013BE03A95F1F750
:103A100098E020E080E031E040E14A95F1F7880F3E
:103A2000499B02C08160232742E04A95F1F70000DC
:103A300040E14A95F1F7915079F790E19A95F1F7C5
:103A400099B132E03A95F1F7000040E14A95F1F77B
:103A50009695917092272081920F90830895A1E00E
:103A6000B0E0E5E3FDE10C94922819828C017C0121
:103A7000E60EF11C0E151F0541F481E099819111AC
:103A800080E02196E6E00C94AE280E94F61CCE0160
:103A900001960E94041DF80181938F01EBCF519A8A
:103AA000599A08955198599AE99AE9E6F0E0808187
:103AB000837F808308956150770B91E001C0990F57
:103AC0006A95EAF720E031E0911108C0222391F0D5
:103AD000599A80E28A95F1F759980895492F482319
:103AE00039F0599A232740E24A95F1F79695ECCFA1
:103AF0005998F9CF5998EDCFFF920F931F93CF9319
:103B0000DF93EC018C01060F111DC017D10729F4BA
:103B1000CDB7DEB7E5E00C94AF28F9900E94FE1C0B
:103B200068E08F2D0E945B1DF0CF1F920F920FB6A1
:103B30000F9211240F931F932F933F934F935F93F3
:103B40006F937F938F939F93AF93BF93EF93FF9365
:103B5000CF93DF930F92CDB7DEB719820E94F61C88
:103B6000CE0101960E94041D082F06950695069524
:103B7000282F22952570902F9570290F922F9370E2
:103B800026952695920F982797708981982B09F092
:103B90005CC0043008F059C080E18A95F1F7599A69
:103BA000519A82E08A95F1F700C0599888E0089F01
:103BB00080011124D801AD5FBE4F1696ED91FC91A6
:103BC00017973097A9F06091AA017091AB011496F4
:103BD0002D913C911597260F371F11968D919C9131
:103BE0001297680F791F13964C9113978C91099532
:103BF000F801ED5FFE4F6381662351F02091AA0129
:103C00003091AB0184819581820F931F0E947C1DAE
:103C10000E94FE1C80E18A95F1F759985198599AB3
:103C200080E18A95F1F7F801ED5FFE4F6081662330
:103C300051F02091AA013091AB0181819281820FD4
:103C4000931F0E942F1D0E94F61C0F90DF91CF91B1
:103C5000FF91EF91BF91AF919F918F917F916F9164
:103C60005F914F913F912F911F910F910F900FBE38
:103C70000F901F9018950F931F93CF93DF93EC0134
:103C800004970CF04CC0F894519A599885E08A95A5
:103C9000F1F700009C2F969595708C2F8570980FEA
:103CA000892F83709695969523E0CC0FDD1F2A957A
:103CB000E1F7980F8E01092B0E94FE1C00C068E0FE
:103CC000802F0E945B1D80E18A95F1F75198599AE7
:103CD000499B1EC087E090E049991CC0FE01ED5F42
:103CE000FE4F63816623F9F02091AA013091AB0168
:103CF00084819581820F931F0E942F1D811113C013
:103D0000519A599A7894DF91CF911F910F9108950C
:103D100000C0DECF019729F4519A599A789480E037
:103D2000F2CF00C0D9CF0E94F61C80E28A95F1F74D
:103D30005998519A80E18A95F1F7CD5FDE4F6881FD
:103D4000662351F02091AA013091AB0189819A81BB
:103D5000820F931F0E947C1D0E94FE1C789481E0BC
:103D6000D2CF9093BD018093BC0108959093A60299
:103D70008093A50208950E947112811103C0809161
:103D8000A0020895E091A502F091A602309729F0D3
:103D90000190F081E02D0995089580E00895E0916B
:103DA000A502F091A602309799F020912E012223CE
:103DB00059F02091CF0227FF07C0DC012C9111960A
:103DC0002C93119726E02C930280F381E02D099526
:103DD0000895E091A502F091A602309739F022E013
:103DE000DC012C930480F581E02D09950895A3E072
:103DF000B0E0EDEFFEE10C9496282091A302309103
:103E0000A40228173907A1F09093A4028093A3027B
:103E1000E091A502F091A602309751F023E02983AA
:103E20009B838A830680F781E02DCE010196099558
:103E30002396E2E00C94B228A3E0B0E0E2E2FFE1D6
:103E40000C9496282091A1023091A20228173907DC
:103E5000A1F09093A2028093A102E091A502F091BB
:103E6000A602309751F024E029839B838A83068041
:103E7000F781E02DCE01019609952396E2E00C949E
:103E8000B228FC01329680912E01882321F0809186
:103E9000CF029EE187FF96E080E0915008F40895FC
:103EA00021912223D1F38F5FF8CF662301F1209176
:103EB0002E012223F1F02091CF0227FF1AC0462FB6
:103EC0004695469546954E3190F4677021E030E076
:103ED00002C0220F331F6A95E2F7840F911DFC0187
:103EE000828190E02823392381E0232B69F480E04C
:103EF0000895FC01329608962191261721F0E817C3
:103F0000F907D1F7F4CF81E008959C01FC013296C6
:103F10009FEF80E04191461751F09F3F19F4411106
:103F200001C0982F8F5F8630A9F79F3F09F408954D
:103F3000290F311D97FD3A95F90162830895FC011F
:103F4000329608962191261303C0DF0111971C9227
:103F5000E817F907B9F70895E62FE695E695E6958F
:103F6000EE3168F4E80FF92FF11D677021E030E0C1
:103F700001C0220F6A95EAF78281822B828308951D
:103F8000E62FE695E695E695EE3170F4E80FF92F09
:103F9000F11D677021E030E001C0220F6A95EAF759
:103FA0002095828128232283089520912E012223A7
:103FB00039F02091CF0227FF03C00E94AC1F089563
:103FC0000E94851F089520912E01222339F020910F
:103FD000CF0227FF03C00E94C01F08950E949F1FA9
:103FE0000895FC01329680912E01882351F0809132
:103FF000CF0287FF06C08EE1DF011D928A95E9F7A7
:10400000089586E0F9CF46E050E00E94D12821E0F3
:10401000892B09F420E0822F089508950E940D2035
:104020000895811106C081E08093A7020E940E20AE
:10403000089582E0F9CF83E08093A7020E940E20CA
:1040400008950E941120089581E08093A7020E94A4
:104050000E2008950E9424200895089508950E9436
:104060002E200895089508950E942D200895CF933D
:104070000E9432200E94F2110E943320C0E08C2F57
:104080000E94C410811105C0CF5FC830C1F7CF9125
:10409000089581E0FCCF85B7806885BF85B78068CB
:1040A00085BF08951F921FB61F9211248F939F936F
:1040B000AF93BF938091A802811113C08091E30256
:1040C0009091E402A091E502B091E6024196A11D13
:1040D000B11D8093E3029093E402A093E502B093B4
:1040E000E602BF91AF919F918F911F901FBE1F90CD
:1040F00018958091EB02843031F10E9448031092B0
:10410000A80288E190E020E40FB6F894A895809387
:1041100060000FBE2093600083B7817F846083BFFF
:1041200083B7816083BF7894889583B78E7F83BF80
:104130000FB6F894A8958091600088618093600024
:10414000109260000FBE08950E94BF060E944D03AA
:10415000089582E084BD93E095BD9AEF97BD80936A
:104160006E0008952FB7F8948091E3029091E402D5
:10417000A091E502B091E6022FBF08952FB7F89401
:104180006091E3027091E4028091E5029091E60271
:104190002FBF08959C014FB7F8948091E30290914E
:1041A000E402A091E502B091E6024FBF821B930B9F
:1041B0000895CF92DF92EF92FF922FB7F894C090BC
:1041C000E302D090E402E090E502F090E6022FBF17
:1041D000A7019601261B370B480B590BCA01B901E1
:1041E000FF90EF90DF90CF90089578941F921FB6C4
:1041F0001F9211248F939F93AF93BF938091E302FB
:104200009091E402A091E502B091E6020196A11D11
:10421000B11D8093E3029093E402A093E502B09372
:10422000E602BF91AF919F918F911F901FBE1F908B
:10423000189587E797E7909301088093000888E135
:104240009AE00FB6F894A895809360000FBE909303
:104250006000FFCF88E19AE00FB6F894A8958093AC
:1042600060000FBE90936000FFCF8091C902089557
:104270009B01BA019091EB029430E9F48F70809326
:10428000E9009FEF8091E800915085FD06C085ED23
:104290008A95F1F700009111F5CF8091E80085FF34
:1042A0000AC050E040E0C9010E9484238091E800E8
:1042B0008E778093E800089543E050E0BC0184E0ED
:1042C0000E943821089546E050E0BC0184E00E943D
:1042D00038210895CF93DF93EC0180912E01811155
:1042E00011C048E050E0BE0181E00E94382180E228
:1042F000FE01A9EAB2E001900D928A95E1F7DF9103
:10430000CF9108958091CF0287FF05C040E284E0FD
:1043100050E0BE01EACF48E081E0FACF603231F4EC
:1043200040E250E0BC0182E00E9438210895809173
:10433000EA02811109C00E9463250E94C025809174
:10434000E20084608093E20008951092EA020895EA
:104350000E94242008956091E70281E0611101C06C
:1043600080E00E941B2008959091EB0281E0943040
:1043700009F080E06091E7020E942120089542E068
:1043800061EC81E00E94DF2442E261EC84E00E9463
:10439000DF2442E261EC82E00E94DF2442E260EC32
:1043A00083E00E94DF249091EB0281E0943009F0D9
:1043B00080E06091E7020E94112008958091ED0253
:1043C000833009F463C030F48130E1F1823009F4C4
:1043D000A0C008958A3009F48CC08B3009F471C0F4
:1043E000893009F052C08091EC02813209F04DC051
:1043F0008091F0029091F102009719F0029709F074
:1044000044C08091E800877F8093E8008091E800B5
:1044100082FF37C09091F3008091F200029731F44F
:104420008091F100813011F0863021F48091F1000B
:104430008093C9028091E8008B778093E8000E9406
:10444000132523C08091EC02813AF9F48091E800B1
:10445000877F8093E8008091F0029091F102892B90
:1044600061F460E289EA92E070E00E942224809187
:10447000E8008B778093E800089560E090E080E0AA
:10448000F3CF8091EB028111C1CF08958091EC02AE
:10449000813AD9F78091F0029091F102892BA9F726
:1044A0008091E800877F8093E8008091E80080FF9A
:1044B000FCCF80912E018093F1008091E8008E77EF
:1044C000BCCF8091EC02813201F78091F002909193
:1044D000F102892BD1F68091E800877F8093E80074
:1044E0000E9413258091EE0280932E010E94BF0648
:1044F00008958091EC02813241F68091E800877F37
:104500008093E8000E9413258091EF028093CA02F5
:1045100008958091EC02813A09F0B7CF8091E800CC
:10452000877F8093E8008091E80080FFFCCF809136
:10453000CA02C1CF84B7877F84BF0FB6F894A8950D
:1045400080916000886180936000109260000FBECF
:1045500080E890E00FB6F89480936100909361003A
:104560000FBE0E942A2008950E9463250E94C02544
:10457000E2EEF0E080818460808378940E943F289E
:10458000089586E291E00E94B61E08958091EB02A4
:10459000853031F48091EB02853019F00E94A4201F
:1045A00008950E9479208091E902882399F30E945E
:1045B0003720882379F30E946E230E94BF06EACF3A
:1045C000A0E2B0E0E6EEF2E20C9496288091EB02D5
:1045D000843009F583E08093E9008091E80082FF50
:1045E0001AC08091E80090E085FF09C050E040E0EB
:1045F00060E270E0CE0101960E94D32391E08091A9
:10460000E8008B778093E800992329F060E2CE01DF
:1046100001960E94A017A096E2E00C94B2289A019D
:104620004091F2025091F3020E9417230895492FFE
:1046300055274330510521F168F44130510509F403
:1046400043C04230510509F444C090E080E050E09E
:1046500040E026C04132510551F142325105A9F7DF
:104660006330710590F7FB01EE0FFF1FE155FE4F20
:104670004081518164557E4FFB01808190E010C0E4
:1046800099278130910581F0009729F00297E9F68A
:10469000ECE9F2E002C0E2EDF2E0849190E0AF01DB
:1046A000F901518340830895EEEAF2E0F6CF6330DA
:1046B000710558F6660F771FFB01EB54FE4F4081E2
:1046C000518189E090E0ECCF82E190E041E353E05A
:1046D000E7CF8BE590E046ED52E0E2CF80E189BD87
:1046E00082E189BD09B400FEFDCF8091D8008F7DA5
:1046F0008093D8008091E00082608093E0008091F8
:10470000E00081FDFCCF0895AF92BF92CF92DF927F
:10471000FF920F931F93CF93DF936C01EB018A01FC
:104720000E943225F82E811123C00115110539F0A0
:10473000F80180819181C81BD90BC80ED91EB12CFC
:10474000A12C2097A9F08091E80085FD22C08091DE
:10475000E8008E778093E80001151105A1F0F801BB
:1047600080819181A80EB91EB182A08285E0F82EC9
:104770008F2DDF91CF911F910F91FF90DF90CF9000
:10478000BF90AF9008950E9432258823D1F2F82E71
:10479000EFCFF60181916F018093F1002197FFEF38
:1047A000AF1ABF0ACECFAF92BF92CF92DF92FF92E5
:1047B0000F931F93CF93DF936C01EB018A010E944B
:1047C0003225F82E811123C00115110539F0F801A9
:1047D00080819181C81BD90BC80ED91EB12CA12C88
:1047E0002097A9F08091E80085FD22C08091E80023
:1047F0008B778093E80001151105A1F0F801808105
:104800009181A80EB91EB182A08285E0F82E8F2D6D
:10481000DF91CF911F910F91FF90DF90CF90BF90CC
:10482000AF9008950E9432258823D1F2F82EEFCF61
:104830008091F100F60181936F012197FFEFAF1A8C
:10484000BF0ACECFFC018091F2029091F30286174D
:104850009707A0F06115710529F49091E8009E7703
:104860009093E80090E06115710551F4911108C032
:104870008091E80082FF34C080E00895BC01F2CF4F
:104880008091EB028823C1F18530C1F18091E8006D
:1048900083FD30C08091E80082FDEACF8091E8007E
:1048A00080FFE1CF8091F3002091F200382F611555
:1048B000710519F02830310558F091E028303105A4
:1048C00009F090E02091E8002E772093E800CBCF0C
:1048D00081918093F100615071092F5F3F4FE7CFC5
:1048E0008091EB02882341F0853041F08091E8000F
:1048F00083FFBECF81E0089582E0089583E00895AC
:10490000FC018091F2029091F30286179707A0F0C4
:104910006115710529F48091E8008E778093E80095
:1049200090E06115710551F4911108C08091E80083
:1049300082FF35C080E00895BC01F2CF8091EB0288
:104940008823C9F18530C9F18091E80083FD31C029
:104950008091E80082FDEACF8091E80080FFE1CFFE
:104960008091F3002091F200382F6115710519F044
:104970002830310558F091E02830310509F090E0F9
:104980008091E8008E778093E800CBCF849180936C
:10499000F1003196615071092F5F3F4FE6CF809152
:1049A000EB02882341F0853041F08091E80083FFDD
:1049B000BDCF81E0089582E0089583E00895982FA7
:1049C000973028F08F708093E90081E008959093EC
:1049D000E900242F762F50E0981731F07091EC0009
:1049E0002091ED005091F00021FD02C09F5FE8CFC3
:1049F0003091EB003E7F3093EB003091ED003D7F36
:104A00003093ED003091EB0031603093EB00709308
:104A1000EC002093ED005093F0002091EE0027FD74
:104A2000E5CF80E008958091EC0287FF13C080916C
:104A3000E80082FF06C08091E8008B778093E80051
:104A400004C08091EB028111F2CF08958091EB02B6
:104A50008823D9F38091E80080FFF8CF8091E800A7
:104A60008E77ECCF2091E4003091E50095E6A90126
:104A70002091EC00822F817020FF06C08091E80019
:104A800080FF06C080E008952091E80022FD1AC052
:104A90008091EB02882389F0853089F08091EB00CA
:104AA00085FD0FC02091E4003091E50042175307C7
:104AB000F9F29150E1F684E0089582E0089583E0F0
:104AC000089581E008950E94D2250E94DA25E0EE43
:104AD000F0E0808181608083E8EDF0E080818F7775
:104AE000808319BCA7EDB0E08C918E7F8C93808180
:104AF0008F7E80831092EA0208950F931F93CF93C5
:104B0000DF930E94D2250E94DA25C8EDD0E088818B
:104B10008F77888388818068888388818F7D888368
:104B200019BC1092EB021092E7021092E902109267
:104B3000E80200EE10E0F80180818B7F808388819D
:104B40008160888342E060E080E00E94DF24E1EE43
:104B5000F0E080818E7F8083E2EEF0E080818160F2
:104B60008083808188608083F80180818E7F80834C
:104B7000888180618883DF91CF911F910F91089583
:104B8000E8EDF0E080818F7E8083E7EDF0E08081CA
:104B90008160808384E082BF81E08093EA020E948A
:104BA0007D250895E8EDF0E080818E7F808310926E
:104BB000E20008951092DA001092E10008951F9229
:104BC0000F920FB60F9211242F933F934F935F9341
:104BD0006F937F938F939F93AF93BF93EF93FF93C5
:104BE0008091E10082FF0BC08091E20082FF07C04C
:104BF0008091E1008B7F8093E1000E943E288091AC
:104C0000DA0080FF19C08091D80080FF15C0809124
:104C1000DA008E7F8093DA008091D90080FF96C001
:104C200080E189BD82E189BD09B400FEFDCF81E04C
:104C30008093EB020E9497218091E10080FF19C0D0
:104C40008091E20080FF15C08091E2008E7F80930A
:104C5000E2008091E20080618093E2008091D800C0
:104C600080628093D80019BC85E08093EB020E949B
:104C7000AB218091E10084FF2BC08091E20084FF92
:104C800027C080E189BD82E189BD89B5982F9170E7
:104C900080FFFBCF8091D8008F7D8093D8008091DA
:104CA000E1008F7E8093E1008091E2008F7E80930F
:104CB000E2008091E20081608093E2008091E7024F
:104CC000882309F449C084E08093EB020E94B42158
:104CD0008091E10083FF29C08091E20083FF25C01D
:104CE0008091E100877F8093E10082E08093EB0276
:104CF0001092E7028091E1008E7F8093E100809125
:104D0000E2008E7F8093E2008091E20080618093D8
:104D1000E20042E060E080E00E94DF248091F00049
:104D200088608093F0000E94A821FF91EF91BF91CD
:104D3000AF919F918F917F916F915F914F913F9133
:104D40002F910F900FBE0F901F90189519BC1092C5
:104D5000EB020E94A52170CF8091E30087FD93E0D4
:104D60009093EB02B3CF1F920F920FB60F921124C4
:104D70002F933F934F935F936F937F938F939F9363
:104D8000AF93BF93CF93DF93EF93FF93D091E9005D
:104D9000DF708091EC00C82FC17080FDC0E81092D8
:104DA000E9008091F000877F8093F00078940E9462
:104DB000F7261092E9008091F00088608093F0005F
:104DC000CD2BCF70C093E900FF91EF91DF91CF9190
:104DD000BF91AF919F918F917F916F915F914F9113
:104DE0003F912F910F900FBE0F901F901895AAE240
:104DF000B0E0EDEFF6E20C9495288CEE92E0209175
:104E0000F100FC012193CF01F2E0843F9F07B9F745
:104E10000E94DE218091E80083FF1EC18091EC0298
:104E20009091ED029A3008F017C1E92FF0E0ED57AC
:104E3000F64D0C947928803899F0823809F00CC12D
:104E40008091F0028F70873008F006C18093E900EE
:104E50008091EB0085FB882780F91092E90006C05D
:104E60008091E8029091E902911182609091E800AE
:104E7000977F9093E8008093F1001092F100809169
:104E8000E8008E77E5C0882309F4D3C0823009F0AA
:104E9000E3C08091EE028111D6C08091F0028F7044
:104EA0002FEF280F263008F0D7C08093E90020911B
:104EB000EB0020FFC8C0933031F48091EB0080629A
:104EC0008093EB00C0C09091EB0090619093EB0059
:104ED00021E030E001C0220F8A95EAF72093EA0032
:104EE0001092EA008091EB008860EACF8111B4C093
:104EF0001091EE021F778091E3008078812B8093E0
:104F0000E3008091E800877F8093E8000E941325EA
:104F10008091E80080FFFCCF8091E300806880935F
:104F2000E30082E0111183E08093EB0295C080588A
:104F3000823008F091C08091EE029091EF028C3D9A
:104F400023E09207A1F583E08A838AE289834FB741
:104F5000F894DE01139620E03EE051E2E32FF0E00A
:104F600050935700E49120FF03C0E295EF703F5F3C
:104F7000EF708E2F90E0EA30C0F0C7968D939D932E
:104F80002F5F243159F74FBF8091E800877F8093CE
:104F9000E8006AE270E0CE0101960E94222480912E
:104FA000E8008B778093E80057C0C096E7CF609108
:104FB000F0027091F102AE014F5F5F4F0E940F232C
:104FC000BC01892B09F448C09091E800977F909329
:104FD000E80089819A810E948024E1CF8038E1F540
:104FE0008091E800877F8093E8008091E7028093BA
:104FF000F10045CF811130C09091EE02923060F502
:105000008091E800877F8093E8009093E7020E94F8
:1050100013258091E702882311F084E005C0809178
:10502000E30087FDFACF81E08093EB020E94BF216D
:1050300013C08091EE02813079F481E0933009F061
:1050400080E08093E9021092E9008091E800877F78
:105050008093E8000E9413258091E80083FF0AC036
:105060008091E800877F8093E8008091EB00806268
:105070008093EB00AA96E3E00C94B1280895CF93B7
:105080008091EB028823A1F0C091E900CF7090914C
:10509000EC00892F817090FD80E8C82B1092E90008
:1050A0008091E80083FD0E94F726CF70C093E9004D
:1050B000CF9108950E9463251092EB02089580918C
:1050C000E300881F8827881F089597FB072E16F492
:1050D000009407D077FD09D00E94BD2807FC05D0B9
:1050E0003EF4909581959F4F0895709561957F4FFF
:1050F0000895EE0FFF1F0590F491E02D09946927A4
:105100009627692778278727782708952F923F9237
:105110004F925F926F927F928F929F92AF92BF92C7
:10512000CF92DF92EF92FF920F931F93CF93DF9373
:10513000CDB7DEB7CA1BDB0B0FB6F894DEBF0FBED0
:10514000CDBF09942A88398848885F846E847D841D
:105150008C849B84AA84B984C884DF80EE80FD801F
:105160000C811B81AA81B981CE0FD11D0FB6F89495
:10517000DEBF0FBECDBFED010895AA1BBB1B51E1E1
:1051800007C0AA1FBB1FA617B70710F0A61BB70BB7
:10519000881F991F5A95A9F780959095BC01CD015C
:1051A0000895FB01DC0104C08D910190801921F468
:1051B00041505040C8F7881B990B0895FB01DC0152
:1051C00002C001900D9241505040D8F70895F999CE
:1051D000FECF92BD81BDF89A992780B50895A8E1C8
:1051E000B0E042E050E00C942B29DC01A40FB51F85
:1051F0004150504048F0CB01840F951F2E910E94E2
:10520000062941505040D0F70895262FF999FECF36
:1052100092BD81BDF89A019700B4021639F01FBA09
:1052200020BD0FB6F894FA9AF99A0FBE0895039626
:10523000272F0E9406290E940529252F0E94062952
:10524000242F0C9406290196272F0E9406290C94DE
:105250000529DC01CB01FC01F999FECF06C0F2BDA6
:10526000E1BDF89A319600B40D9241505040B8F724
:105270000895F894FFCFC204C20412051205770501
:105280009305F104F1049805FF050E060E06B51707
:10529000C117F717091814181F18221822182218F6
:1052A000C717C71727182B18331840184D18501850
:1052B00053186018DD185119E518AF18B318E9181C
:1052C000B718ED18F918C3184A19C718FD18CB18E4
:1052D00001192919CF1805193019D5180B191319E7
:1052E000BB18F118BF18F518D9180F191F1939195B
:1052F0004819A918E1185819861C8C1C751C801CAB
:10530000921C981C9E1C1B2743272C2843272C28C3
:0A531000762797272C28EE27FA27AE
:10531A003902010000000100000000000000040141
:10532A000000000405000000000000280850011ECB
:10533A000A140103020135216A2163215C2101E279
:10534A0000E900EA00B500B600B700CD008301CC41
:10535A00008A0192019401210223022402250226D5
:10536A000227022A02B300B4006F0070009F01CB2B
:10537A00019F02A002818283E200E900EA00B500EF
:10538A00B600B700CD008301CC008A0192019401D6
:10539A002102230224022502260227022A02B3003E
:1053AA00B4006F0070009F01CB019F02A0028182AE
:1053BA0083946697C6353133323676024022B61B5D
:0C53CA000443036503E802010321030013
:00000001FF
