:100000000C94DD010C94FA010C942F190C94FA0154
:100010000C94FA010C94FA010C94FA010C94FA0174
:100020000C94FA010C94FA010C94E8200C94BC2175
:100030000C94EC1B0C94FA010C94FA010C94FA0148
:100040000C94FA010C94FA010C94FA010C94FA0144
:100050000C94FA010C948F1C0C94FA010C94FA0184
:100060000C94FA010C94FA010C94FA010C94FA0124
:100070000C94FA010C94FA010C94FA010C94FA0114
:100080000C94FA010C94FA010C94FA010C94FA0104
:100090000C94FA010C94FA010C94FA010C94FA01F4
:1000A0000C94FA010C94FA010C94FA0114001A0051
:1000B00008001500170004001600070009000A00D8
:1000C0001D221B0006001900050000000000E000D2
:1000D000E2002B421C0018000C00120013000B0061
:1000E0000D000E000F002A0011001000360037002E
:1000F00038322C2828412911000000002D022D0043
:100100002E022E0033022F02260227023002310275
:100110002F223400340230003300000000000100C0
:10012000010001003500BC00AE00BB004C002900FE
:100130005000520051004F003502AA00A800A9004B
:100140003132010001000100000000001E021F0208
:100150002002210222021E001F0020002100220096
:10016000E100405244520000235200000000010010
:100170000100010023022402250239002A00230085
:10018000240025002600270000000000360037006C
:1001900038320100010001000000000000000000F2
:1001A0000000000000003A003B003C003D003E0023
:1001B000440000000000007C01000000000001007D
:1001C00001000100000000000000000000003F00EE
:1001D0004000410042004300000000000000000019
:1001E00045000100010001000000000014001A0099
:1001F000090013000A00040015001600170007008C
:100200001D221B0006001900050000000000E00090
:10021000E2002B420D000F0018001C002A000B000A
:10022000110008000C0012000E001000360037000C
:1002300038322C2828412911000000001003450005
:10024000520047004F002000360039000000220312
:1002500041006E006B0069007400200042006800DD
:1002600061006E006B00680061007200690061004F
:1002700000000403090409023B00020100A0FA097E
:1002800004000001030101000921110100012240C5
:1002900000070581030800010904010001030000B3
:1002A0000009211101000122B60007058203200088
:1002B0000112010002000000089897353500010185
:1002C00002000105010902A10185020901A1000541
:1002D00009190129081500250195087501810205F4
:1002E00001093009311581257F95027508810609BC
:1002F000381581257F950175088106050C0A38029D
:100300001581257F950175088106C0C0050109800A
:10031000A101850319012AB700150126B70095012F
:1003200075108100C0050C0901A101850419012A7D
:10033000A002150126A002950175108100C00501DB
:100340000906A1018506050719E029E71500250121
:100350009508750181020507190029EF150025018F
:1003600095F07501810205081901290595057501AA
:100370009102950175039101C005010906A10105CE
:100380000719E029E71500250195087501810295F7
:1003900001750881010507190029FF150026FF00D6
:1003A000950675088100050819012905950575014F
:1003B0009102950175039101C00011241FBECFEF7A
:1003C000DAE0DEBFCDBF11E0A0E0B1E0E8EFF8E495
:1003D00002C005900D92AA3AB107D9F722E0AAEA25
:1003E000B1E001C01D92A93EB207E1F70E942E14B0
:1003F0000C943B240C9400008530B8F46830A8F4C9
:10040000453098F450E095E0699F400D511D11244E
:10041000FA0198E2899FE00DF11D1124EE0FFF1FF4
:10042000E455FF4F85919491089581E090E00895FF
:100430000E94FC01089581E008950E941B02089526
:1004400081E008950E941B0208950E9422020895EF
:1004500008950E9428020895A6E0B0E0E2E3F2E0E9
:100460000C94972349835A839E833091B1018981EB
:100470009A8131111AC03E81332399F0222389F0E9
:100480000E94BC07182F682F89819A810E949807C3
:1004900069817A81812F0E94EF0E2696E3E00C9409
:1004A000B3230E94AA07182FF3CF0E94BC076981CB
:1004B0007A81F1CFFC01262F4081518162817381C5
:1004C000848195810E942C020895CF93DF93EC01E3
:1004D00061E00E945A02BE010E941D02DF91CF918D
:1004E0000895CF93DF93EC0160E00E945A02BE01B1
:1004F0000E942902DF91CF91089508950E946D0610
:100500000E947D022FEF84E39CE0215080409040C8
:10051000E1F700C0000008950E947E020E94B31C13
:1005200008950E947E020E94C41C08950F931F9399
:10053000CF93DF938C0161E00E945A02EC01B80175
:100540000E942502811106C080E0DF91CF911F91AA
:100550000F910895B801CE010E944C188823A1F391
:10056000B801CE010E94D716882371F3B801CE01DD
:100570000E94B317882341F3F8018581882361F035
:10058000C330FCE7DF07E9F058F4C115ECE7DE07FC
:10059000A9F0C130DC47B9F0C8010E942002D5CFD4
:1005A000CB358CE7D807A9F0CC35ECE7DE0771F046
:1005B000CA35DC4789F70E94440CEECF0E948C02BA
:1005C000C3CF0E944C0C0E949102BECF0E943A0CF5
:1005D000E3CF0E94480CE0CF0E94C91B0E94130386
:1005E00008950E9417030E94CE1B0895089581E08C
:1005F00008950895CF93DF93D82F0E94F702C82F54
:10060000882319F08D2F0E94F9028C2FDF91CF9152
:1006100008950895CF93C82F0E94F6028C2F0E9450
:10062000FA02CF91089580E00E940A0308950E9483
:10063000551A0E940A030895CF930E94551AC82F95
:100640008091AC018C1779F0C093AC010E94581CCA
:100650006093AD017093AE018093AF019093B001B0
:100660008C2F0E940A03CF910895ADE0B0E0EBE338
:10067000F3E00C949823488759876A877B878C8797
:100680009D8791110E94720B1F8286E0FE013896B1
:10069000DE01119601900D928A95E1F78D8181110D
:1006A0000DC029813A814B815C816D817E818F8172
:1006B0000E94A50A2D96E2E00C94B423CE01019687
:1006C0000E9465028111EDCFF5CFFC01248121301C
:1006D00021F4808191810E94EE070895662329F01C
:1006E0000E94B2140E94851508950E940C15FACF3D
:1006F000CF93C82F8823B9F08CEF8C0F813AA8F4E0
:100700006C2F80910001909101010E94EF1A8823C3
:1007100029F08C2F0E94320B0E94AB0B8C2F0E9471
:100720002A0B0E94AB0BCF91089580E28C0F88308A
:1007300048F4C77081E001C0880FCA95EAF70E94AB
:10074000550BEFCFEBE5EC0FE33040F4F0E0EE5962
:10075000FE4F808190E00E94911AE5CFE8E5EC0F12
:10076000EB3150F4F0E0EE0FFF1FE45DFE4F8081AF
:1007700091810E94B61AD7CF83E38C0F833198F60C
:1007800061E08C2F0E946E03CECF882381F19CEF15
:10079000980F913A28F40E94320B0E94AB0B0895F7
:1007A00090E2980F983050F4877091E001C0990F53
:1007B0008A95EAF7892F0E945B0BEFCF9BE5980F94
:1007C000933028F490E080E00E94911A089598E513
:1007D000980F9B3128F490E080E00E94B61A0895AB
:1007E00093E3980F933118F460E00E946E0308952C
:1007F0001F93CF93DF93182FEB010E94780320976C
:1008000039F4812F0E94C503DF91CF911F91089584
:100810008FE99FE00197F1F700C000002197EFCF2B
:1008200070E060E0893311F460E570E00E94F80345
:100830000895882321F00E94550B0E94AB0B089568
:10084000882321F00E945B0B0E94AB0B0895B0E05F
:10085000A0E0EDE2F4E00C9491236C01D62FC72FB9
:10086000FC011581068102950F700E944B0BE82E4A
:100870008823E9F0E12E1123D1F08C2F807F803482
:1008800051F080E28D0F8830F8F0011104C08C2FF8
:10089000807E8032C9F08091C50282FF15C082E05F
:1008A0000E940E0C0E944B0B91E0E82EE926BC2E14
:1008B000B2949FE0B922FBE0FB15B8F1EB2DF0E01C
:1008C000E35CFB4D0C948223E12CF1CF0C2F0F70D5
:1008D000C07F11F00295007F112399F0002359F099
:1008E00080E28D0F883010F0D11107C0802F0E9458
:1008F000550B0E94AB0B8D2F5AC0802F0E94650BA9
:10090000F8CF8D2F0E94C503002379F080E28D0F70
:10091000883010F0D11104C0802F0E945B0B03C0FF
:10092000802F0E946B0B0E94AB0BEB2DE850FF0B4E
:10093000349720F40E94551A0E940A03EE2089F091
:100940000E94470B80FD0DC0F60115820E94410BED
:100950000E94F606C6010E9434060E94410B0E94C6
:100960000607CDB7DEB7E9E00C94AD232C2F2F702E
:10097000F22EC07FC03219F0F29480EFF822DD230E
:1009800041F0D130D1F1112309F444C00023F1F03A
:10099000B2CF8091C50282FD15C0112359F0FF200E
:1009A00029F08F2D0E94550B0E94AB0B80E00E9416
:1009B0007803BBCF80E00E94C503FF2009F4B5CFC8
:1009C0008F2DABCF112369F0011104C08F2D0E9430
:1009D0001904ABCF013009F0A8CF8F2D0E94890BED
:1009E000A4CF0111A2CF8F2D0E9420048F2D0E9431
:1009F000950B8F2D0E94790B98CF112321F0063093
:100A000008F093CFE3CF053008F08FCF8F2D0E94F1
:100A100020048BCF0023D1F3D93349F43FEF87EE85
:100A200093E0315080409040E1F700C000008D2FEE
:100A30000E94C5037ACF8C2F86958695837069F0C6
:100A4000813009F072CF8D2F9C2F9370111102C04D
:100A500080E090E00E94B61A68CF8D2F9C2F937093
:100A6000111102C080E090E00E94911A5ECF612FC8
:100A70008D2F0E946E0359CF8C2F8370A1F5111119
:100A800054CF4D2F429546954770440F440F2D2F5C
:100A90002F7030E0042E02C0220F331F0A94E2F7B9
:100AA00090E080E0D4FF09C08FE090E002C0880FA2
:100AB000991F4A95E2F780959095C695C695C370A3
:100AC000822B932BC23049F058F4C13019F00E94A8
:100AD000C6062BCF0E94BD0628CF0E94CF0625CF89
:100AE0000E94BA0622CF8695112311F08C2F8170B7
:100AF000882309F41ACF4D2F429546954770440F2D
:100B0000440F2D2F2F7030E0042E02C0220F331F10
:100B10000A94E2F790E080E0D4FF09C08FE090E013
:100B200002C0880F991F4A95E2F780959095C69567
:100B3000C695C370822B932BC23049F058F4C13054
:100B400019F00E943107F1CE0E942807EECE0E94D4
:100B50003A07EBCE0E94DE06E8CECF70112329F0D3
:100B60008C2F0E94F6068D2F32CF8D2F0E942004ED
:100B70008C2F0E940607D9CED23F41F160F4D03FBE
:100B8000B9F0D13F81F0112309F446C00111B3CE71
:100B90008C2F8F711FC0D33F01F1D43FA1F78091FB
:100BA000C50282FD24C08C2F8F71112311F312C056
:100BB000112341F0053008F0B8CE8C2F8F710E94C0
:100BC0001807B3CE063008F0B0CEF7CF8C2F8F7158
:100BD0001111CFCF0E94F606A8CE112329F08C2F39
:100BE0008F710E94EA06A1CE0E94E5069ECE1123D7
:100BF00049F0CF718C2F0E94F60663E08C2F0E9483
:100C0000F00B93CE81E00E940E0C023008F48DCEE2
:100C100082E00E940E0C89CE002359F0D93309F0EE
:100C200006CFEFEFF7EE23E0E150F0402040E1F790
:100C3000FCCE8C2F8F719DCF0F931F93CF93DF939B
:100C4000EC01688179818D810E94F9078C010E94F5
:100C500043070E94B906B801CE010E942704DF9124
:100C6000CF911F910F910895CF93DF93EC018C8169
:100C7000882399F0CE010E949602811111C00E9432
:100C80004B0B882351F08D81882339F08091C50268
:100C900082FF03C082E00E940E0CDF91CF91089585
:100CA000CE010E941C06CE010E947102F6CF90E098
:100CB00080E00E94911A90E080E00E94B61A0E94A3
:100CC000720B0E94AB0B0E94A1150E94851508951E
:100CD0000E943A0B0E94570608950E94620B0E94E0
:100CE0006806089592959F70963091F058F4925F3F
:100CF0009F70923058F4803F19F030F4883E30F401
:100D000081E008959A5FF4CF843FD1F380E00895A5
:100D1000883EB0F3813FD1F7F3CFFC012481222339
:100D200039F0808191810E94EE070E947206089539
:100D300080E00895A6E0B0E0E0EAF6E00C949823A5
:100D40002696E2E00C94B423A7E0B0E0EAEAF6E0ED
:100D50000C9498232796E2E00C94B42308950E9403
:100D6000AE0608950E94AF069093C9018093C80112
:100D7000089508950E94B20608952091C801309107
:100D8000C901822B932B0E94B20608952091C801BD
:100D90003091C901822393230E94B20608952091C5
:100DA000C8013091C901822793270E94B206089595
:100DB0000E94AE0608950E94D80608950E94DB06A0
:100DC0009093C7018093C601089590E080E00E944F
:100DD000DE06089521E030E0A90102C0440F551F4E
:100DE0008A95E2F7CA010E94DE06089521E030E00C
:100DF00002C0220F331F8A95E2F78091C6019091BD
:100E0000C701822B932B0E94DE06089521E030E07B
:100E100002C0220F331F8A95E2F72095309580910A
:100E2000C6019091C701822393230E94DE06089594
:100E300021E030E002C0220F331F8A95E2F7809153
:100E4000C6019091C701822793270E94DE0608956C
:100E50002091C6013091C701822B932B0E94DE06A0
:100E600008952091C6013091C701822393230E94E7
:100E7000DE0608952091C6013091C701822793278D
:100E80000E94DE0608950895262F277091E001C084
:100E9000990F2A95EAF723E0769567952A95E1F769
:100EA000660F771F660F771FFA01E60FF71F50E0F6
:100EB00040E0682F70E08191DF0111979B01042EC3
:100EC00002C0369527950A94E2F7217021952827CC
:100ED000292328272C934F5F5F4F4430510559F742
:100EE0000895A82FA77023E0969587952A95E1F796
:100EF000880F991F880F991FFB01E80FF91F50E019
:100F000040E080E0219130E00A2E02C0369527951E
:100F10000A94E2F721703327042E01C0220F0A94AD
:100F2000EAF7822B4F5F5F4F4430510559F7089520
:100F3000262F983070F4853060F4682F70E085E0DB
:100F4000989F600D711D112442EB51E0822F0E9489
:100F500044070895292F983068F4853058F490E0BC
:100F600062EB71E035E0239F800D911D11240E94FA
:100F70007107089580E00895B0E0A0E0E2ECF7E0AA
:100F80000C9491237C010091C6011091C7018091BE
:100F9000C8019091C901082B192BCFE0D0E0CC24D7
:100FA000C394D12CBC2EC6010C2E02C0880F991FF1
:100FB0000A94E2F780239123892B49F4219790F733
:100FC000B12C8B2DCDB7DEB7E9E00C94AD23B70182
:100FD0008C2F0E94FB0E019789F3F3CFCF93DF9301
:100FE000EC010E94BC07BE010E94FB0EDF91CF9175
:100FF00008951F93CF93DF93EB019091B101992353
:1010000039F0CB010E94EE07DF91CF911F91089537
:10101000882369F0CB010E94BC07182F682FCE01EE
:101020000E949807BE01812F0E94FB0EEDCFCB01DD
:101030000E94AA07182FF6CF1F93CF93DF93C0917A
:10104000CA0117E08091CB018C1304C0DF91CF91CE
:101050001F910895D0E01C9FF0011D9FF00D1124F9
:10106000E453FE4F20813181428153816481758137
:1010700086810E94A4062196C770E4CF20910402C5
:1010800030910502409106025091070260910802DA
:101090007091090280910A020E94A4060895482FC7
:1010A0002091CA019091CB0157E0291302C080E042
:1010B000089530E0529FF001539FF00D1124E45346
:1010C000FE4F8181681306C08081481303C085816B
:1010D0008111EECF2F5F3F4F2770E7CF8AEA90E074
:1010E0000895B0E0A0E0E7E7F8E00C949323809146
:1010F0000A02807F09F054C080910902882309F414
:101100004FC0E091CA0187E0D82E8091CB018E17A5
:1011100009F446C00E2F10E0ED9DF0011124E453B8
:10112000FE4F8481882309F440C0D09EE001D19E07
:10113000D00D1124FE01E453FE4F918180910502F0
:10114000981333C090818091040298132EC085813A
:1011500081112BC0E280F3808091060290910702FA
:10116000E81AF90A60E084E092E00E945A0264E022
:1011700072E00E946E08E816F906B8F480910A023F
:101180008F70806180930A02CE52DE4F88818F700B
:101190008061888384E092E00E9434060E941C08EB
:1011A000CDB7DEB7E7E00C94AF23F8013196E770D6
:1011B000ACCFA4E1B0E0EFEDF8E00C948B238C0110
:1011C00086E0F801DE011F9601900D928A95E1F705
:1011D000D80114967C9014971596EC9084E0A82E74
:1011E00082E0B82E80910802811126C0711007C0DC
:1011F000FF24F3948F2D6496EFE00C94A723EE2048
:10120000B9F0C8010E948D06F82E882389F087E086
:10121000F801A4E0B2E001900D928A95E1F784E034
:1012200092E00E9465030E9471080E943E08E2CF8E
:10123000C8010E943406DCCFF80150806180C28072
:10124000D380F09009028091060290910702460136
:10125000881A990A60E084E092E0FF2009F412C144
:101260000E945A0264E072E00E946E088816990695
:1012700008F0B4C0772009F4BBCF80910A02382F60
:10128000307F20910502D80111969C911197311160
:1012900063C0291317C0209104029C91291312C026
:1012A000E11054C08F70806180930A020E943E0852
:1012B00084E092E00E94340680910A02F80186835D
:1012C000F12C98CFE11042C0662D852D0E944F0869
:1012D000E82E882371F084E092E00E94340687E0D3
:1012E000E4E0F2E0DF011D928A95E9F70E943E08F2
:1012F000E7CF5F86688A8F8598890E94EE07292F3D
:1013000022952F70243058F49F70223088F0992352
:1013100099F0F8019681907F79F4FE2C6BCF2A5FCB
:101320002F70223068F0C8010E943406EF2CF5CFF0
:10133000992311F0882389F3805E883070F3F3CF0E
:10134000803F58F3815F833070F7E7CF80910A02C6
:10135000816080930A02B4CF291315C02091040242
:101360009C91291310C0E1100EC016968C93C801F1
:101370000E94340687E0F801A4E0B2E001900D92EB
:101380008A95E1F752CFC8010E948D06882309F49F
:101390004FCFEE2009F44CCF80910A02803288F0C2
:1013A000209104023091050239872887DB86CA869E
:1013B000909108029C871D868E87CE0108960E9418
:1013C000340687E0F801A4E0B2E001900D928A951E
:1013D000E1F70E9471080E943E080ACF80910A023C
:1013E000982F907FA1F46C2DDA8AC98A452D562D4D
:1013F0007A89872D9E2D0E949A0684E092E00E94B1
:10140000340687E0F50111928A95E9F76FCF7720CE
:1014100009F4EECE20910502D80111969C91119706
:10142000291312C0209104029C9129130DC0E110D0
:101430000BC016968C93C8010E94340687E0F50114
:1014400011928A95E9F7D6CEC8010E948D068823AD
:1014500009F4EECEEE2009F4EBCE80910A02803240
:1014600008F4AFCF20910402309105023A8329831A
:10147000DC82CB82909108029D831E828F83CE01F5
:1014800001969DCF0E945A0264E072E00E946E08AD
:101490008816990608F049C0772009F4A9CEFE2CD9
:1014A000EE2009F4C5CE90910502D80111968C91D9
:1014B000119798132CC0909104028C91981327C017
:1014C0008091060290910702C81AD90ABAEACB168F
:1014D000D104A0F490910A0290FD10C0907F71F0A9
:1014E00080910A02F8018683903F09F440CF982F3B
:1014F000907F905F8F70892B868339CF87E0F801CA
:10150000A4E0B2E001900D928A95E1F773CEC80194
:101510000E948D06811155CF80910A0281608093CF
:101520000A02C8010E94340665CE6C2DDA8AC98A87
:10153000452D562D7A89872D9E2D0E949A0687E08B
:10154000D5011D928A95E9F770CEAEE0B0E0EBEAE6
:10155000FAE00C949723288739874A875B876C8742
:101560007D878E87CE0108960E94D9088823B1F026
:101570006C85662341F0288539854A855B857D85A4
:101580008E850E94A40617E08091CA019091CB013C
:1015900089133DC02E96E3E00C94B32387E0FE014F
:1015A0003896DE01119601900D928A95E1F78C85AF
:1015B000882349F32091CB0130E0C901019687705F
:1015C00099274091CA014817190699F097E0929F10
:1015D000D001939FB00D1124A453BE4FFE0131964C
:1015E00001900D929A95E1F78093CB010E941C081F
:1015F000CACF0E946D061092CB011092CA0187E0FB
:10160000E4E0F2E0DF011D928A95E9F7BCCF819F0B
:10161000C001112484539E4F0E94D908882309F4E5
:10162000B9CFE091CA011E9FF0011124E453FE4F8F
:1016300020813181428153816481758186810E943C
:10164000A4068091CA0190E0019687709927809343
:10165000CA019ACF682F80910001909101010E94E8
:101660006F1B0895682F80910001909101010E94E5
:101670007D1B089580910001909101010E948B1BB8
:10168000089580912B028695869586950895809180
:101690002B028770089590912B02977081E009F4D6
:1016A00080E0089580914F02089590914F02892B18
:1016B00080934F020895809590914F0298239093C4
:1016C0004F02089510924F02089590914E02892B77
:1016D00080934E020895809590914E0298239093A6
:1016E0004E02089510924E02089508950E94750BBF
:1016F000089590912C02292F282331F08095892379
:1017000080932C020E94760B089508950E94850B09
:10171000089590912D02292F2823281729F0982B1E
:1017200090932D020E94860B089590912D02292FEF
:10173000282331F08095892380932D020E94860B07
:10174000089580912D02882329F010922D0280E0C7
:101750000E94860B0895CF93DF93E0910001F091F2
:10176000010180914F028083E0910001F09101011D
:10177000808190914E02892B808390912D02992334
:1017800081F0E0910001F09101018081892B80833B
:1017900080910001909101010E94DB1A81110E9449
:1017A000A10BC0910001D091010140E250E06BE03B
:1017B00072E0CE010E94D323892B59F080E2FE0112
:1017C000ABE0B2E001900D928A95E1F7CE010E9464
:1017D000691ADF91CF91089508950E94EC0B089546
:1017E0009091C50292FF11C098E0899F9001112449
:1017F000622B60932B020E94F60680912B02869545
:10180000869586950E94ED0B08950E94F606089530
:1018100010922B0280E00E94ED0B089590912B0214
:101820008095892380932B02282F277069F48917CC
:1018300059F09091C50292FF07C0869586958695CE
:101840000E9406070E94080C08959091C50292FB21
:10185000222720F9281769F080FB92F99093C5029E
:101860008091C4029091C5020E946D0C82E00E949A
:101870000E0C08958091C50282FB882780F991E0C3
:1018800089270E94250C089581E00E94250C089567
:1018900080E00E94250C08956FEF7FEF90E080E0DC
:1018A0000E942524089590E080E00E94F12321E029
:1018B000863E9E4F09F020E0822F089582E090E05E
:1018C0000E94E923089583E090E00E94E9230895AF
:1018D00084E090E00E94F1230895BC0184E090E050
:1018E0000E9425240895AB01BC018FE090E00E9486
:1018F00019240895AB01BC0183E190E00E941924F2
:10190000089560E070E0CB010E947A0C089560E0D9
:1019100070E0CB010E94730C0E94810C0895A8E036
:10192000B0E0E5E9FCE00C94982366EE7EEF90E0F1
:1019300080E00E94252460E082E090E00E9407247D
:1019400060E083E090E00E9407241092C9011092A9
:10195000C80160E074E184E090E00E94252460E02A
:1019600086E090E00E9407246FEF87E090E00E94FD
:10197000072440E050E0BA0188E090E00E9419247A
:1019800060E084E290E00E94072460E087E190E05C
:101990000E94072460E08CE090E00E94072460E051
:1019A0008DE090E00E94072419821A821B821C821B
:1019B0001D821E821F82188648E050E068E170E0B8
:1019C000CE0101960E94F72340E050E0BA0180E288
:1019D00090E00E9419240E94870C2896E2E00C9463
:1019E000B4230E948F0C0895682F8EE090E00E942F
:1019F00007240895A6E0B0E0E0E0FDE00C94962313
:101A00000E944C1C8C0180915002909151028017D1
:101A1000910781F019821A820E944C1C682F49811B
:101A20005A81792F80E090E00E9435031093510293
:101A3000009350022696E4E00C94B2230E940B100F
:101A400060935E0270935F028093600290936102E4
:101A500060935A0270935B0280935C0290935D02E4
:101A60000895089508950E94320D089508950E94E2
:101A7000360D089581E0089585E290E10E944B1AA9
:101A80000E94310D0E94330D08950E941412089592
:101A9000089508950E94480D0E94490D08950E94DE
:101AA00044100E94090308950E94431C0E94E50F00
:101AB0000E943D120E9475110E944F0D0E94BF1698
:101AC0000E9447120E94370D0895A6E0B0E0EBE6B1
:101AD000FDE00C948F230E943A0D81110CC00E94EE
:101AE000FA0C0E9414120E94C3150E941C03269631
:101AF000EBE00C94AB230E94981182E5A82E82E0C3
:101B0000B82E750110E0F70101917F01812F0E942D
:101B10006A101F5F183009F441C00817A1F38091C3
:101B2000620281FD0E9470100E94450DC82E10E0D7
:101B300099249394812F0E946A10082FF5018191B6
:101B40005F01081729F1D02ED826F12CEE24E3945A
:101B50008D2D8E21A9F0CC2099F0F9821A830E9454
:101B60004C1C9C838B839D8291E0802F8E2109F4F5
:101B700090E049815A816B817C818D810E9435037F
:101B8000F394EE0CF5E0FF12E3CFF50131970083FB
:101B90001F5F183079F60E941E0DA3CF0813BFCF28
:101BA0009ECF1F93CF93DF930E94000FEC01C115CE
:101BB00080E5D807F0F5C11580E4D80708F09CC08F
:101BC000C03ED10520F5CD3CD10508F082C0C83A11
:101BD000D10578F4C53AD10508F073C0C130D105FC
:101BE00019F1209709F1C430D105F0F4D0E0C0E03C
:101BF0001BC0C33CD105D0F7C85AD0E0CC0FDD1FC5
:101C0000CB59DE4F0990D881C02DD4640DC0C115C9
:101C100080E2D80708F0D1C0C11581E0D80708F0EC
:101C20005AC0C83ED10510F7CE01DF91CF911F9168
:101C30000895C03682E5D80718F5C03482E5D80784
:101C400008F06BC0C03282E5D80708F05FC0C1154C
:101C500082E5D80708F497C02C2F2695269580E2B8
:101C6000289F900111248C2F8370C1E0D0E002C026
:101C7000CC0FDD1F8A95E2F7C22BD32BDD68D4CFC2
:101C8000C03A82E5D80760F4C03882E5D80708F486
:101C900059C0CF71D0E0DC2FCC27C46FD06AC4CF3D
:101CA000C03C82E5D80708F462C0C03E82E5D80790
:101CB00008F09CCFDC2FCC27CC27DF71C06FD06A17
:101CC000B3CFC55AD0E0C556DE4FC881D0E0D0644E
:101CD000ABCFD065A9CF8D2F0E94A20F182FCE01B8
:101CE00099270E94000FC12FD0E0DC2FCC27CC27F2
:101CF000DF71C82BD92B98CFCE0199270E94000FF6
:101D0000CC27DF70C82BD92BD06A8ECFCF71D0E013
:101D1000DC2FCC27C16FD06A87CF2C2F2695269534
:101D2000277080E2289F900111248C2F8370C1E0DE
:101D3000D0E002C0CC0FDD1F8A95E2F7C22BD32B77
:101D4000DC6872CF2C2F26952695277080E2289F7D
:101D5000900111248C2F8370C1E0D0E002C0CC0F21
:101D6000DD1F8A95E2F7C22BD32BDA685DCF8C2F6B
:101D70008F710E94A20FC82FD0E0DC2FCC27CC2778
:101D8000DF71D06251CF8C2F8F710E94A20F55E06E
:101D9000D695C7955A95E1F7CF70D0E0DC2FCC27C8
:101DA000282F30E084FF05C044E0220F331F4A95FE
:101DB000E1F7C22BD32BD06937CF8D2F8F710E94C3
:101DC000A20F182FCE0199270E94000FC12FD0E03B
:101DD000DC2FCC27CC27DF71C82BD92BD2CF462FB5
:101DE000783030F4653020F4672F0E94180208958F
:101DF00090E080E008950E94EF0E0E94D10D0895BA
:101E000082389105B9F1B0F48133910509F47DC0B0
:101E100048F48932910509F46DC08A32910509F4BC
:101E20007BC008958533910509F45FC0893391051E
:101E300009F10895833E9105D9F138F4803E91056A
:101E400029F1823E910579F10895863E9105D9F1F7
:101E5000873E910509F43EC0843E910541F52091ED
:101E6000C50221FF24C08091C40284FD19C087EE01
:101E700090E008952091C402237009F05AC0209187
:101E8000C50223FF14C089E290E008952091C402A6
:101E900020FD38C03091C50230FF09C024FF43C087
:101EA00090E080E008952091C40222FDF7CF0895CC
:101EB0002091C40222FD3AC03091C50230FD39C0E4
:101EC00024FFF5CFEDCF2091C40223FFF0CF24FDF6
:101ED000E7CFCDCF2091C40223FD2EC03091C502A3
:101EE00031FFEECF84EE90E008952091C40225FFEB
:101EF000DECFC9CF2091C40225FD21C02091C502AB
:101F000023FFD5CF89E390E0D2CF2091C40226FFF2
:101F1000CECF8AE290E008952091C40226FFC7CF79
:101F200081E390E0089583EE90E0089582EE90E0E2
:101F3000089580EE90E0089586EE90E0089585E3A0
:101F400090E008959091C40292FF06C0282F287156
:101F50002830F9F4877F846093FF06C0282F28710A
:101F60002831F1F4877E84612091C50220FF06C0EC
:101F7000382F38713830D9F4877F816021FF06C04F
:101F8000282F28712831D1F4877E816194FD877EC6
:101F90000895282F24712430F9F68B7F8860DCCFD8
:101FA000282F2471243101F78B7E8861DDCF382FF3
:101FB0003171313019F78E7F8860E0CF282F217181
:101FC000213121F78E7E8861E1CF1092C0021092FC
:101FD000C1021092C2021092C3020895CF92DF9202
:101FE000EF92FF926B017C010E94141281110EC0CE
:101FF0000E94581CC61AD70AE80AF90AC092C00201
:10200000D092C102E092C202F092C302FF90EF9020
:10201000DF90CF9008950F931F930E94141288238E
:1020200029F00E94581C1F910F9108950E94581C7E
:102030000091C0021091C1022091C2023091C302EE
:10204000600F711F821F931FEECF80E008950E94E2
:102050004C0C08950E9498112FEF86E791E02150D3
:1020600080409040E1F700C000000E94981180E09D
:102070000E946A1080FF04C00E9427100E94B31CB7
:1020800008950E942A1008950E94530C811102C0E5
:102090000E94F10C0E945E0C809362020E94680C08
:1020A0009093C5028093C4020E9441100E94630C69
:1020B00090E00E94BA068091C6019091C7010E94EB
:1020C000DB06089508950E946210089508950E9405
:1020D00066100895E82FF0E0E153FD4F80810895E8
:1020E000089580EA8A95F1F7089500C008950E9446
:1020F0007110089508950E947A100895EF92FF924A
:102100001F93CF93DF9300D000D0CDB7DEB70E94EE
:102110001412182F6091D702882309F447C019823E
:102120001A821B821C82862F90E09E012F5F3F4FF8
:102130007901B90181539D4F0E9455128823E9F01E
:102140008091C60290E044E050E0B70181539D4F7A
:102150000E94D32321E020936302892BC9F410E06D
:102160000E946710812F0F900F900F900F90DF91BA
:10217000CF911F91FF90EF90089580916302882383
:1021800071F384E0F70111928A95E9F710926302E6
:10219000E091C602F0E0E153FD4F89819A81AB8165
:1021A000BC8180839183A283B383DACF70E06153D3
:1021B0007D4F8091C60290E081539D4F0E94DC12BA
:1021C0000E947B10CFCFF894E82FE295EF70F0E0FB
:1021D00031A1282F2F7081E090E001C0880F2A954F
:1021E000EAF7982F9095932391A392A1892B82A32C
:1021F00078940895CF93DF9381E30E94E31083E303
:102200000E94E31082E30E94E31086E30E94E31041
:10221000CEE9D1E089918F3F11F00E94E31081E077
:10222000C33AD807B9F7DF91CF910895B0E0A0E0A5
:10223000ECE1F1E10C949223EC01D62E062F10E094
:10224000C8018D559E4F7C01FC0180818F3F09F4B0
:1022500045C0F894E82FE295EF70F0E091A18F70FF
:1022600021E030E001C0220F8A95EAF7892F822B06
:1022700081A382A12095282322A378940E9475101F
:10228000EEE9F1E043EA51E031E0C12C21912F3F2A
:1022900051F1A22FA295AF70B0E090968C9190E092
:1022A0002F7002C0959587952A95E2F780FD1BC097
:1022B000832FC82A330F4E175F0741F7F70180813C
:1022C0008F3F11F00E94E31061E0C11001C060E097
:1022D0008D2D0E947710C00FD11FC882CDB7DEB7F9
:1022E000E8E00C94AE2380E0E4CF8091020180917D
:1022F000020194E0811190E09093D70284E0891B61
:102300008093C6020E94FA1088E0EFECF2E0DF0151
:10231000982F1D929A95E9F7E7ECF2E0DF011D9204
:102320008A95E9F784E00E94D6110E94631008950F
:10233000A8E0B0E0EEE9F1E10C9495238E010F5F87
:102340001F4F88E0F80111928A95E9F7F12C6F2D63
:10235000C8010E941611F394F4E0FF12F8CF48E090
:1023600050E0B80187EC92E00E94D32321E000976F
:1023700009F420E0892B41F088E0F801A7ECB2E0F5
:1023800001900D928A95E1F76091D70270E0615358
:102390007D4F44E087EC92E00E94D711182F0E94F5
:1023A0007E10812B2896E5E00C94B1230895CF92FE
:1023B000DF92EF92FF920F931F93CF936C017B01FB
:1023C000042F222349F081E0809366020E944C1C76
:1023D0009093650280936402C0916602C1110AC0A5
:1023E000C0E08C2FCF911F910F91FF90EF90DF9065
:1023F000CF90089580916402909165020E94641CC0
:10240000059770F310E0A801B601C7010E94D3231D
:10241000892B41F0A801B601C7010E94E023109268
:102420006602DFCFC0E0FBCFCF93DF9380916902DC
:10243000811117C0C8ECD0E00E94682381110EC042
:102440008FE39CE90197F1F700C000002197A1F705
:1024500082E0809369020E94632303C081E080933D
:10246000690281E090916902913009F080E0DF918A
:10247000CF9108950E94141208950E943A128093F9
:1024800002010E94141281110E948B1208950E9471
:102490001412811102C00E948E12089581E0909161
:1024A0006A029A3008F080E008950F931F93CF934B
:1024B000DF93EC018B0180916A028A30B8F4B80195
:1024C000CE010E94D912C82F811122C080916A02C8
:1024D0008F3FB9F40E944C1C90936802809367026E
:1024E0008C2FDF91CF911F910F91089580916702FA
:1024F000909168020E94641C843F914000F7C0E004
:10250000EFCF8F5F80936A028A3020F7C1E0E8CF77
:1025100010926A02E5CF0E94E91808950E94EC1813
:102520000895B0E0A0E0E7E9F2E10C94932379018B
:10253000C82F880FDD0B41155105A9F0FE0193E06E
:10254000EE0FFF1F9A95E1F7ED5FFE4F81819281BB
:1025500085599D4F208130E04217530708F49A01B6
:10256000A9010E94E023CE010E94D519D82E88230C
:10257000D1F001151105B9F083E0CC0FDD1F8A956C
:10258000E1F7FE01ED5FFE4F438150E004171507B0
:1025900008F4A801CD5FDE4F6C817D8165597D4FC8
:1025A000C7010E94E0238D2DCDB7DEB7E7E00C9484
:1025B000AF230E94D31308950E94EA130895A4E064
:1025C000B0E0E5EEF2E10C94962360918002709108
:1025D000810280918202909183020E94731C11E01B
:1025E000643671058105910518F10E940B106E5F2C
:1025F0007F4F8F4F9F4F69837A838B839C8310E03B
:1026000000E030E020E044E050E0BE016F5F7F4F2B
:1026100082E00E949112182F882351F00E94581CCA
:102620006093800270938102809382029093830270
:10263000812F2496E4E00C94B223B0E0A0E0E3E222
:10264000F3E10C9490237C015B016A010E944E121D
:1026500001E010E0882311F00AE010E0C1E0D0E0D2
:10266000B501C701F6010995811104C021960C1727
:102670001D072CF4CDB7DEB7EAE00C94AC23CC9F59
:102680009001CD9F300D300D112490E080E045E3A6
:102690004A95F1F70000019682179307C1F7E0CF42
:1026A000A5E0B0E0E6E5F3E10C9490235B01E09057
:1026B000A701F090A80101E010E09E012B5F3F4FC1
:1026C00050E040E070E060E080E00E949112182F3E
:1026D000882309F44BC067018FEFC81AD80A6091AC
:1026E0007C0270917D0280917E0290917F020E9417
:1026F000731C643671058105910580F104E010E0DA
:102700009E012F5F3F4F50E040E070E060E081E0CD
:102710000E949112F82E64E070E0C6010E94C0167B
:1027200011E09D81981310E01F2159F10E94581C5F
:1027300060937C0270937D0280937E0290937F026F
:1027400089819A81AB81BC818093780290937902D0
:10275000A0937A02B0937B0211E013C064E070E0B2
:10276000C6010E94C0169D818913C8CFF7018181DF
:102770009281A381B48189839A83AB83BC83111135
:10278000DFCF8091780290917902A0917A02B09186
:102790007B02F50180839183A283B383812F2596E9
:1027A000EAE00C94AC230F931F93CF93DF93EC01DB
:1027B0008B0140E553E10E941D13882331F04FED5A
:1027C00052E1B801CE010E941D13DF91CF911F91FC
:1027D0000F9108950F931F93CF93DF93C091A7019B
:1027E000D091A801CE01019624E0FB01DC0101900B
:1027F0000D922A95E1F764E070E00E94C01688838C
:102800006D817E818F81988500917402109175028F
:102810002091760230917702601771078207930743
:1028200051F06093740270937502809376029093D6
:1028300077020E94EE0FDF91CF911F910F910895C3
:102840000E94391E0E94540D0E94461E08950E9447
:102850004B1E0E94650D0E94651E08950E94E51B97
:102860000E941F1E0E943C0D0E9420140E942714EB
:102870000E944A0DFBCF80918A0280FF0DC06091BB
:10288000200170E0660F771F6038710570F56115E3
:10289000710569F1862F089581FF07C060912001BD
:1028A00084E0689FB0011124EFCF6091200182FD88
:1028B0000AC0809189028823A9F020911F016091AC
:1028C0002001821710F088E0ECCF869FC001112410
:1028D00033E0880F991F3A95E1F7622F70E00E946C
:1028E0006E23D2CF68E070E0D5CF8FE7089581E006
:1028F000089580918A0280FF0CC060911C0170E0F5
:1029000075956795759567956115710549F1862FE0
:10291000089581FF06C060911C0170E07595679570
:10292000F3CF60911C0182FD0BC090918802992326
:10293000A1F060911B0180911C01961738F0682F5F
:1029400070E06038710500F38FE70895899FC0013A
:10295000112470E00E946E23F4CF61E070E0D7CFC5
:1029600081E008958D3C31F40E943B148195809361
:102970008E0208958E3C19F40E943B14F8CF8F3CD0
:1029800031F40E943B14819580938D020895803D1F
:1029900019F40E943B14F8CF893D29F40E94791460
:1029A00080938F0208958A3D21F40E9479148195C5
:1029B000F7CF8B3D31F40E9479148195809390027A
:1029C00008958C3D19F40E947914F8CF9FE2980F76
:1029D000983070F4815D990B21E030E001C0220F46
:1029E0008A95EAF780918C02822B80938C0208955D
:1029F0008D3D31F480918A02816080938A0208952E
:102A00008E3D21F480918A028260F7CF8F3DB9F725
:102A100080918A028460F1CF40918D028D3C59F4FF
:102A200080918E0287FF0DC010928E0241110BC063
:102A30001092890208C08E3C81F480918E02181693
:102A40009CF3442381F080918F0290919002892B16
:102A500009F05AC01092880208958F3C49F447FF4C
:102A6000F0CF10928D0280918E028111ECCFE0CFD9
:102A7000803D19F41416ACF3E4CF90918F02893D98
:102A800029F41916F4F610928F02DBCF8A3D19F45F
:102A900097FFD7CFF8CF909190028B3D29F497FF05
:102AA000D0CF10929002CDCF8C3D19F41916CCF3F3
:102AB000C8CF9FE2980F983090F4815D990B21E088
:102AC00030E0B90102C0660F771F8A95E2F7CB01AB
:102AD000809590918C02892380938C02B2CF8D3D9A
:102AE00031F480918A028E7F80938A02AACF8E3D34
:102AF00021F480918A028D7FF7CF8F3D09F0A1CF1D
:102B000080918A028B7FF0CF08950E944C1C9C011B
:102B100090918D0280918E02982B21F03093870244
:102B20002093860290918F0280919002982B21F041
:102B300030938502209384028BE892E00E94831AEE
:102B4000089586E0EBE8F2E0DF011D928A95E9F74F
:102B5000109289021092880210928A020895FC0154
:102B6000828181110EC0838181110BC0848181110A
:102B700008C091E08581811101C090E0892F8170AA
:102B8000089581E0FCCFA6E0B0E0E9ECF5E10C941B
:102B9000972386E0EBE8F2E0DE01119601900D92BA
:102BA0008A95E1F710928D0210928E0210928F0298
:102BB000109290028B819C81892B89F080918602F2
:102BC000909187020E94641CAC0190918902992324
:102BD000C9F1809121018417150608F440C08D8148
:102BE0009E81892B91F080918402909185020E94B0
:102BF000641CAC0190918802992309F471C0809102
:102C00001D018417150608F479C0BE016F5F7F4F60
:102C10008BE892E00E949D1B811105C08BE892E039
:102C20000E94AF1581110E94851586E0FE01319644
:102C3000ABE8B2E001900D928A95E1F72696E3E0C9
:102C40000C94B323209122018AE0289F9001112443
:102C50002417350720F69F5F9093890202C09F3F9B
:102C6000D1F71B81112359F00E943B149FEF1116DD
:102C70000CF491E0899F802D112480938D021C819A
:102C8000112359F00E943B149FEF11160CF491E0B0
:102C9000899F802D112480938E0230918D023323E1
:102CA00009F49DCF20918E02222309F498CF45EBA1
:102CB0003403C0011124992359F090938D0245EB00
:102CC000240390011124332339F030938E0287CFEF
:102CD00081E080938D02F3CF81E080938E027FCFDD
:102CE00020911E018AE0289F9001112424173507A6
:102CF00008F08BCF9F5F9093880202C09F3FD1F76F
:102D00001D81112359F00E9479149FEF11160CF4C4
:102D100091E0899F802D112480938F021E811123C1
:102D200059F00E9479149FEF11160CF491E0899FDD
:102D3000802D11248093900230918F02332309F467
:102D400064CF20919002222309F45FCF45EB340336
:102D5000C0011124992359F090938F0245EB24036D
:102D600090011124332339F0309390024ECF81E04B
:102D700080938F02F3CF81E08093900246CF089535
:102D8000FC01680F791F8FEF91E36E177F0709F43D
:102D900008952191822728E030E087FF06C0880F40
:102DA000892721503109C9F7F0CF880FFACFCF9387
:102DB000DF93EC01FB018581882309F4D2C09E01D9
:102DC00030572332310508F0B2C00E94680C90934E
:102DD000C5028093C402FE01E150F047E232F105E2
:102DE00020F4E75BFB4D0C9482238091C402816048
:102DF0008093C40293C08091C50288608093C5020D
:102E00008DC08091C4028260F3CF8091C40284603F
:102E1000EFCF8091C4028860EBCF8091C5028160C2
:102E2000EDCF8091C5028260E9CF8091C4028061BC
:102E3000DFCF8091C4028062DBCF8091C4028064C6
:102E4000D7CF0E946D068091C4028068D1CF809157
:102E5000C4028C60CDCF8091C5028360CFCF8091BA
:102E6000C4028E7FC5CF8091C502877FC7CF809176
:102E7000C4028D7FBDCF8091C4028B7FB9CF80917A
:102E8000C402877FB5CF8091C5028E7FB7CF809176
:102E9000C5028D7FB3CF8091C4028F7EA9CF809170
:102EA000C4028F7DA5CF8091C4028F7BA1CF0E94E9
:102EB0006D068091C4028F779BCF8091C402837F7F
:102EC00097CF8091C5028C7F99CF8091C40282FBFD
:102ED000992790F921E0922790FB82F990FB83F9E2
:102EE00087CF8091C502982F909591708E7F892B06
:102EF00090FB81F983CF9091C402892F8F7B96FF3D
:102F0000806476CF0E946D069091C402892F97FB52
:102F100087F980586DCF81E00E94F40C8091C40243
:102F20009091C5020E946D0C0E946D0680E0DF91B9
:102F3000CF91089580E0F0CF9091C402892F8F7EC9
:102F400094FF806155CF9091C402892F8E7F90FFAE
:102F500081604ECF9091C502892F877F93FF886053
:102F60004DCF81E0E4CFCF93DF93EB0186319C47D7
:102F700011F50E94520B9D81992399F08A7A91E074
:102F800009F490E090939102811109C089E20E94B6
:102F90002A0B0E94AB0B80E0DF91CF91089585E36F
:102FA000F6CF80919102811104C089E20E94320B18
:102FB000F0CF85E3FBCF81E0EFCFB0E0A0E0E3EE20
:102FC000F7E10C9490237C015B01C42FD22FFC010C
:102FD00085818823C9F0409394020E944C1C9093F1
:102FE00093028093920280E28C0F883040F4C77085
:102FF00081E001C0880FCA95EAF70E941904CDB795
:10300000DEB7EAE00C94AC2310919402141338C09C
:1030100080919202909193020E94641C6C01B7010E
:10302000C5010E946E08C816D90650F5C0E2CD0F42
:103030001D17C1F080E2810F883048F4177081E0DD
:10304000012E01C0880F0A94EAF70E942004C830BC
:1030500048F481E09D2F977001C0880F9A95EAF798
:103060000E941904802F0E941004C83040F6D770C7
:1030700081E001C0880FDA95EAF70E942004BFCFF3
:1030800080E28C0F883008F0BACFC77081E001C0B1
:10309000880FCA95EAF7F1CF0F93DB0188519C475F
:1030A00087309105A0F5FC01E559FB4D0C94822376
:1030B00006E221EE41EE6AE17CE7CD010E94DD17D8
:1030C00080E00F91089507E225EE45EE6BE17CE785
:1030D000F4CF06E221EE40EE68E17CE7EECF07E2B6
:1030E00025EE44EE69E17CE7E8CF06E221EE42EE10
:1030F0006CE17CE7E2CF07E225EE46EE6DE17CE78E
:10310000DCCF08E221E045EE6EE17CE7D6CF1596F4
:103110008C91882319F010929402D3CF81E0D1CF03
:103120008EE1499B02C08150E1F7499BFECF089593
:10313000599880E28A95F1F7599A0895FC013BE08D
:103140003A95F1F798E020E080E031E040E14A95DF
:10315000F1F7880F499B02C08160232742E04A951E
:10316000F1F7000040E14A95F1F7915079F790E1CD
:103170009A95F1F799B132E03A95F1F7000040E104
:103180004A95F1F79695917092272081920F90833E
:103190000895A1E0B0E0EFECF8E10C9494231982DB
:1031A0008C017C01E60EF11C0E151F0541F481E037
:1031B0009981911180E02196E6E00C94B0230E9461
:1031C0009018CE0101960E949E18F80181938F01FC
:1031D000EBCF519A599A08955198599AE99AE9E68C
:1031E000F0E08081837F808308956150770B91E0C8
:1031F00001C0990F6A95EAF720E031E0911108C00B
:10320000222391F0599A80E28A95F1F7599808950E
:10321000492F482339F0599A232740E24A95F1F77C
:103220009695ECCF5998F9CF5998EDCFFF920F931F
:103230001F93CF93DF93EC018C01060F111DC01774
:10324000D10729F4CDB7DEB7E5E00C94B123F990AE
:103250000E94981868E08F2D0E94F518F0CF1F92F9
:103260000F920FB60F9211240F931F932F933F933A
:103270004F935F936F937F938F939F93AF93BF937E
:10328000EF93FF93CF93DF930F92CDB7DEB7198201
:103290000E949018CE0101960E949E18082F069554
:1032A00006950695282F22952570902F9570290F49
:1032B000922F937026952695920F98279770898163
:1032C000982B09F05CC0043008F059C080E18A9561
:1032D000F1F7599A519A82E08A95F1F700C059980E
:1032E00088E0089F80011124D801AD5FBE4F16967B
:1032F000ED91FC9117973097A9F06091A70170911B
:10330000A80114962D913C911597260F371F119601
:103310008D919C911297680F791F13964C9113977A
:103320008C910995F801ED5FFE4F6381662351F0A2
:103330002091A7013091A80184819581820F931F6C
:103340000E9416190E94981880E18A95F1F7599801
:103350005198599A80E18A95F1F7F801ED5FFE4F97
:103360006081662351F02091A7013091A8018181ED
:103370009281820F931F0E94C9180E9490180F908B
:10338000DF91CF91FF91EF91BF91AF919F918F917D
:103390007F916F915F914F913F912F911F910F916D
:1033A0000F900FBE0F901F9018950F931F93CF9300
:1033B000DF93EC0104970CF04CC0F894519A5998A3
:1033C00085E08A95F1F700009C2F969595708C2FDB
:1033D0008570980F892F83709695969523E0CC0F72
:1033E000DD1F2A95E1F7980F8E01092B0E9498188E
:1033F00000C068E0802F0E94F51880E18A95F1F7FF
:103400005198599A499B1EC087E090E049991CC089
:10341000FE01ED5FFE4F63816623F9F02091A70165
:103420003091A80184819581820F931F0E94C91851
:10343000811113C0519A599A7894DF91CF911F91BD
:103440000F91089500C0DECF019729F4519A599A3F
:10345000789480E0F2CF00C0D9CF0E94901880E22B
:103460008A95F1F75998519A80E18A95F1F7CD5FE5
:10347000DE4F6881662351F02091A7013091A801A9
:1034800089819A81820F931F0E9416190E949818B1
:10349000789481E0D2CF9093AB018093AA010895F4
:1034A00090939B0280939A0208950E9414128111B6
:1034B00003C0809195020895E0919A02F0919B02D9
:1034C000309729F00190F081E02D0995089580E072
:1034D0000895E0919A02F0919B02309799F0209123
:1034E0002B01222359F02091C40227FF07C0DC01E1
:1034F0002C9111962C93119726E02C930280F38146
:10350000E02D09950895E0919A02F0919B02309781
:1035100039F022E0DC012C930480F581E02D09953F
:103520000895A3E0B0E0E7E9FAE10C949823209134
:1035300098023091990228173907A1F090939902C7
:1035400080939802E0919A02F0919B02309751F09B
:1035500023E029839B838A830680F781E02DCE01B7
:10356000019609952396E2E00C94B423A3E0B0E021
:10357000ECEBFAE10C94982320919602309197029B
:1035800028173907A1F09093970280939602E09153
:103590009A02F0919B02309751F024E029839B839B
:1035A0008A830680F781E02DCE0101960995239646
:1035B000E2E00C94B423FC01329680912B01882325
:1035C00021F08091C4029EE187FF96E080E0915057
:1035D00008F4089521912223D1F38F5FF8CF662359
:1035E00001F120912B012223F1F02091C40227FF49
:1035F0001AC0462F4695469546954E3190F4677011
:1036000021E030E002C0220F331F6A95E2F7840FF9
:10361000911DFC01828190E02823392381E0232B36
:1036200069F480E00895FC013296089621912617EE
:1036300021F0E817F907D1F7F4CF81E008959C0154
:10364000FC0132969FEF80E04191461751F09F3F79
:1036500019F4411101C0982F8F5F8630A9F79F3F61
:1036600009F40895290F311D97FD3A95F9016283F8
:103670000895FC01329608962191261303C0DF01BC
:1036800011971C92E817F907B9F70895E62FE69508
:10369000E695E695EE3168F4E80FF92FF11D6770B5
:1036A00021E030E001C0220F6A95EAF78281822B87
:1036B00082830895E62FE695E695E695EE3170F45F
:1036C000E80FF92FF11D677021E030E001C0220FF3
:1036D0006A95EAF720958281282322830895209114
:1036E0002B01222339F02091C40227FF03C00E943E
:1036F000461B08950E941F1B089520912B01222331
:1037000039F02091C40227FF03C00E945A1B08957C
:103710000E94391B0895FC01329680912B01882369
:1037200051F08091C40287FF06C08EE1DF011D9237
:103730008A95E9F7089586E0F9CF46E050E00E94C7
:10374000D32321E0892B09F420E0822F08950895E6
:103750000E94A71B0895811106C081E080939C02FE
:103760000E94A81B089582E0F9CF83E080939C0219
:103770000E94A81B08950E94AB1B089581E08093CE
:103780009C020E94A81B08950E94BE1B08950895E4
:1037900008950E94C81B0895089508950E94C71BAC
:1037A0000895CF930E94CC1B0E9498110E94CD1BBC
:1037B000C0E08C2F0E946A10811105C0CF5FC83015
:1037C000C1F7CF91089581E0FCCF85B7806885BFB0
:1037D00085B7806885BF08951F921FB61F92112478
:1037E0008F939F93AF93BF9380919D02811113C0DC
:1037F0008091D8029091D902A091DA02B091DB02B7
:103800004196A11DB11D8093D8029093D902A09337
:10381000DA02B093DB02BF91AF919F918F911F901D
:103820001FBE1F9018958091E002843031F10E94F4
:10383000EC0210929D0288E190E020E40FB6F8942B
:10384000A895809360000FBE2093600083B7817FAE
:10385000846083BF83B7816083BF7894889583B782
:103860008E7F83BF0FB6F894A89580916000886121
:1038700080936000109260000FBE08950E946D0654
:103880000E94F102089582E084BD93E095BD9AEF15
:1038900097BD80936E0008952FB7F8948091D80259
:1038A0009091D902A091DA02B091DB022FBF089566
:1038B0002FB7F8946091D8027091D9028091DA0202
:1038C0009091DB022FBF08959C014FB7F89480912F
:1038D000D8029091D902A091DA02B091DB024FBFD9
:1038E000821B930B0895CF92DF92EF92FF922FB736
:1038F000F894C090D802D090D902E090DA02F0900B
:10390000DB022FBFA7019601261B370B480B590B73
:10391000CA01B901FF90EF90DF90CF90089578949D
:103920001F921FB61F9211248F939F93AF93BF9343
:103930008091D8029091D902A091DA02B091DB0275
:103940000196A11DB11D8093D8029093D902A09336
:10395000DA02B093DB02BF91AF919F918F911F90DC
:103960001FBE1F90189587E797E7909301088093F3
:10397000000888E19AE00FB6F894A895809360005B
:103980000FBE90936000FFCF88E19AE00FB6F894E5
:10399000A895809360000FBE90936000FFCF809148
:1039A000BE0208959B01BA019091E0029430E9F4BF
:1039B0008F708093E9009FEF8091E800915085FD22
:1039C00006C085ED8A95F1F700009111F5CF809141
:1039D000E80085FF0AC050E040E0C9010E94DC1EFB
:1039E0008091E8008E778093E800089543E050E0EE
:1039F000BC0182E00E94D21C089546E050E0BC0168
:103A000082E00E94D21C0895CF93DF93EC01809155
:103A10002B01811111C048E050E0BE0181E00E94FD
:103A2000D21C80E2FE01AEE9B2E001900D928A95CF
:103A3000E1F7DF91CF9108958091C40287FF05C01F
:103A400040E282E050E0BE01EACF48E081E0FACFF8
:103A50008091DF02811109C00E946C200E94C92060
:103A60008091E20084608093E20008951092DF026A
:103A700008950E94BE1B08956091DC0281E06111EF
:103A800001C080E00E94B51B08959091E00281E0A2
:103A9000943009F080E06091DC020E94BB1B089525
:103AA00042E061EC81E00E94E81F42E261EC82E0CA
:103AB0000E94E81F9091E00281E0943009F080E0DC
:103AC0006091DC020E94AB1B08958091E20283307A
:103AD00009F461C030F48130D1F1823009F49EC024
:103AE00008958A3009F48AC08B3009F46FC0893098
:103AF00009F050C08091E102813209F04BC0809101
:103B0000E5029091E602029708F044C08091E80037
:103B1000877F8093E8008091E80082FF37C0909112
:103B2000F3008091F200029731F48091F10081302E
:103B300011F0863021F48091F1008093BE028091D3
:103B4000E8008B778093E8000E941C2023C08091BE
:103B5000E102813AF9F48091E800877F8093E800E0
:103B60008091E5029091E602892B61F460E28EE992
:103B700092E070E00E942B1F8091E8008B77809389
:103B8000E800089560E090E080E0F3CF8091E002EB
:103B90008111C1CF08958091E102813AD9F78091D6
:103BA000E5029091E602892BA9F78091E800877FD2
:103BB0008093E8008091E80080FFFCCF80912B018A
:103BC0008093F1008091E8008E77BCCF8091E10274
:103BD000813201F78091E5029091E602892BD1F6BE
:103BE0008091E800877F8093E8000E941C208091EC
:103BF000E30280932B010E946D0608958091E102FB
:103C0000813241F68091E800877F8093E8000E942E
:103C10001C208091E4028093BF0208958091E1020C
:103C2000813A09F0B7CF8091E800877F8093E80060
:103C30008091E80080FFFCCF8091BF02C1CF84B7A4
:103C4000877F84BF0FB6F894A89580916000886143
:103C500080936000109260000FBE80E890E00FB685
:103C6000F89480936100909361000FBE0E94C41B82
:103C700008950E946C200E94C920E2EEF0E080814D
:103C80008460808378940E944823089583E291E0C1
:103C90000E94501A08958091E002853031F480919D
:103CA000E002853019F00E943E1C08950E94131C0A
:103CB0008091DE02882399F30E94D11B882379F337
:103CC0000E94C61E0E946D06EACF08959A01409197
:103CD000E7025091E8020E946E1E0895492F552771
:103CE0004330510519F168F44130510509F444C0DD
:103CF0004230510509F445C090E080E050E040E0DA
:103D000025C04132510549F142325105A9F780E4FD
:103D100090E049E753E061157105C1F086EB90E052
:103D200043EC52E06130710589F0E6CF992781308C
:103D3000910581F0009729F00297F1F6ECE3F2E0AB
:103D400002C0E2E7F2E0849190E0AF01F901518313
:103D500040830895EEE4F2E0F6CF89E090E048E891
:103D600052E06115710591F389E090E041EA52E07B
:103D70006130710559F3C0CF82E190E041EB52E030
:103D8000E5CF8BE390E046E752E0E0CF80E189BDEC
:103D900082E189BD09B400FEFDCF8091D8008F7DFE
:103DA0008093D8008091E00082608093E000809151
:103DB000E00081FDFCCF0895AF92BF92CF92DF92D9
:103DC000FF920F931F93CF93DF936C01EB018A0156
:103DD0000E943B20F82E811123C00115110539F0F6
:103DE000F80180819181C81BD90BC80ED91EB12C56
:103DF000A12C2097A9F08091E80085FD22C0809138
:103E0000E8008E778093E80001151105A1F0F80114
:103E100080819181A80EB91EB182A08285E0F82E22
:103E20008F2DDF91CF911F910F91FF90DF90CF9059
:103E3000BF90AF9008950E943B208823D1F2F82EC6
:103E4000EFCFF60181916F018093F1002197FFEF91
:103E5000AF1ABF0ACECFFC018091E7029091E80231
:103E600086179707A0F06115710529F49091E80075
:103E70009E779093E80090E06115710551F49111DF
:103E800008C08091E80082FF34C080E00895BC0142
:103E9000F2CF8091E0028823C1F18530C1F1809199
:103EA000E80083FD30C08091E80082FDEACF809178
:103EB000E80080FFE1CF8091F3002091F200382FDD
:103EC0006115710519F02830310558F091E028305E
:103ED000310509F090E02091E8002E772093E8006A
:103EE000CBCF81918093F100615071092F5F3F4FDB
:103EF000E7CF8091E002882341F0853041F0809146
:103F0000E80083FFBECF81E0089582E0089583E05A
:103F10000895FC018091E7029091E80286179707C7
:103F2000A0F06115710529F48091E8008E778093E7
:103F3000E80090E06115710551F4911108C080917D
:103F4000E80082FF35C080E00895BC01F2CF809187
:103F5000E0028823C9F18530C9F18091E80083FD32
:103F600031C08091E80082FDEACF8091E80080FFB7
:103F7000E1CF8091F3002091F200382F6115710597
:103F800019F02830310558F091E02830310509F05A
:103F900090E08091E8008E778093E800CBCF849109
:103FA0008093F1003196615071092F5F3F4FE6CF4A
:103FB0008091E002882341F0853041F08091E80053
:103FC00083FFBDCF81E0089582E0089583E00895E6
:103FD000982F973028F08F708093E90081E0089542
:103FE0009093E900242F762F50E0981731F07091CC
:103FF000EC002091ED005091F00021FD02C09F5F88
:10400000E8CF3091EB003E7F3093EB003091ED0034
:104010003D7F3093ED003091EB0031603093EB0049
:104020007093EC002093ED005093F0002091EE008F
:1040300027FDE5CF80E008958091E10287FF13C05E
:104040008091E80082FF06C08091E8008B77809322
:10405000E80004C08091E0028111F2CF08958091C0
:10406000E0028823D9F38091E80080FFF8CF8091A7
:10407000E8008E77ECCF2091E4003091E50095E6E2
:10408000A9012091EC00822F817020FF06C0809151
:10409000E80080FF06C080E008952091E80022FD3E
:1040A0001AC08091E002882389F0853089F08091E0
:1040B000EB0085FD0FC02091E4003091E500421730
:1040C0005307F9F29150E1F684E0089582E00895F3
:1040D00083E0089581E008950E94DB200E94E320A0
:1040E000E0EEF0E0808181608083E8EDF0E08081A7
:1040F0008F77808319BCA7EDB0E08C918E7F8C9375
:1041000080818F7E80831092DF0208950F931F932A
:10411000CF93DF930E94DB200E94E320C8EDD0E024
:1041200088818F77888388818068888388818F7D64
:10413000888319BC1092E0021092DC021092DE0219
:104140001092DD0200EE10E0F80180818B7F808309
:1041500088818160888342E060E080E00E94E81FFF
:10416000E1EEF0E080818E7F8083E2EEF0E08081FE
:1041700081608083808188608083F80180818E7F68
:104180008083888180618883DF91CF911F910F9117
:104190000895E8EDF0E080818F7E8083E7EDF0E028
:1041A00080818160808384E082BF81E08093DF0230
:1041B0000E9486200895E8EDF0E080818E7F808364
:1041C0001092E20008951092DA001092E100089532
:1041D0001F920F920FB60F9211242F933F934F937C
:1041E0005F936F937F938F939F93AF93BF93EF935F
:1041F000FF938091E10082FF0BC08091E20082FF7B
:1042000007C08091E1008B7F8093E1000E944723EB
:104210008091DA0080FF19C08091D80080FF15C01E
:104220008091DA008E7F8093DA008091D90080FF40
:1042300096C080E189BD82E189BD09B400FEFDCF51
:1042400081E08093E0020E94281D8091E10080FFC0
:1042500019C08091E20080FF15C08091E2008E7F3E
:104260008093E2008091E20080618093E20080917F
:10427000D80080628093D80019BC85E08093E0026A
:104280000E943C1D8091E10084FF2BC08091E200E0
:1042900084FF27C080E189BD82E189BD89B5982F5F
:1042A000917080FFFBCF8091D8008F7D8093D800E4
:1042B0008091E1008F7E8093E1008091E2008F7E0B
:1042C0008093E2008091E20081608093E20080911F
:1042D000DC02882309F449C084E08093E0020E9454
:1042E000451D8091E10083FF29C08091E20083FF9A
:1042F00025C08091E100877F8093E10082E0809378
:10430000E0021092DC028091E1008E7F8093E10058
:104310008091E2008E7F8093E2008091E2008061D4
:104320008093E20042E060E080E00E94E81F80911C
:10433000F00088608093F0000E94391DFF91EF919A
:10434000BF91AF919F918F917F916F915F914F91AD
:104350003F912F910F900FBE0F901F90189519BC91
:104360001092E0020E94361D70CF8091E30087FD1D
:1043700093E09093E002B3CF1F920F920FB60F928B
:1043800011242F933F934F935F936F937F938F935A
:104390009F93AF93BF93CF93DF93EF93FF93D0910E
:1043A000E900DF708091EC00C82FC17080FDC0E88B
:1043B0001092E9008091F000877F8093F00078945C
:1043C0000E9400221092E9008091F00088608093A2
:1043D000F000CD2BCF70C093E900FF91EF91DF91FA
:1043E000CF91BF91AF919F918F917F916F915F918D
:1043F0004F913F912F910F900FBE0F901F901895E6
:10440000AAE2B0E0E6E0F2E20C94972381EE92E0BB
:104410002091F100FC012193CF01F2E0893E9F073A
:10442000B9F70E94651D8091E80083FF1EC180914D
:10443000E1029091E2029A3008F017C1E92FF0E012
:10444000EE58FB4D0C948223803899F0823809F0A5
:104450000CC18091E5028F70873008F006C180930F
:10446000E9008091EB0085FB882780F91092E90034
:1044700006C08091DD029091DE02911182609091E0
:10448000E800977F9093E8008093F1001092F1008C
:104490008091E8008E77E5C0882309F4D3C082308C
:1044A00009F0E3C08091E3028111D6C08091E5025A
:1044B0008F702FEF280F263008F0D7C08093E900C7
:1044C0002091EB0020FFC8C0933031F48091EB00C5
:1044D00080628093EB00C0C09091EB00906190935C
:1044E000EB0021E030E001C0220F8A95EAF720932B
:1044F000EA001092EA008091EB008860EACF811117
:10450000B4C01091E3021F778091E3008078812B83
:104510008093E3008091E800877F8093E8000E9409
:104520001C208091E80080FFFCCF8091E300806830
:104530008093E30082E0111183E08093E00295C054
:104540008058823008F091C08091E3029091E4029B
:104550008C3D23E09207A1F583E08A838AE2898378
:104560004FB7F894DE01139620E03EE051E2E32FCE
:10457000F0E050935700E49120FF03C0E295EF7004
:104580003F5FEF708E2F90E0EA30C0F0C7968D93BA
:104590009D932F5F243159F74FBF8091E800877FAB
:1045A0008093E8006AE270E0CE0101960E942B1F22
:1045B0008091E8008B778093E80057C0C096E7CFE2
:1045C0006091E5027091E602AE014F5F5F4F0E947D
:1045D000661EBC01892B09F448C09091E800977FC2
:1045E0009093E80089819A810E94891FE1CF8038E9
:1045F000E1F58091E800877F8093E8008091DC02FC
:104600008093F10045CF811130C09091E302923048
:1046100060F58091E800877F8093E8009093DC024A
:104620000E941C208091DC02882311F084E005C0E8
:104630008091E30087FDFACF81E08093E0020E9441
:10464000501D13C08091E302813079F481E09330F2
:1046500009F080E08093DE021092E9008091E8008A
:10466000877F8093E8000E941C208091E80083FFF0
:104670000AC08091E800877F8093E8008091EB007A
:1046800080628093EB00AA96E3E00C94B323089534
:10469000CF938091E0028823A1F0C091E900CF7010
:1046A0009091EC00892F817090FD80E8C82B1092CA
:1046B000E9008091E80083FD0E940022CF70C09342
:1046C000E900CF9108950E946C201092E0020895B5
:1046D0008091E300881F8827881F089597FB072E85
:1046E00016F4009407D077FD09D00E94BF2307FC81
:1046F00005D03EF4909581959F4F089570956195F2
:104700007F4F0895EE0FFF1F0590F491E02D09945F
:104710002F923F924F925F926F927F928F929F92D1
:10472000AF92BF92CF92DF92EF92FF920F931F93BF
:10473000CF93DF93CDB7DEB7CA1BDB0B0FB6F89470
:10474000DEBF0FBECDBF09942A88398848885F84B0
:104750006E847D848C849B84AA84B984C884DF8021
:10476000EE80FD800C811B81AA81B981CE0FD11D05
:104770000FB6F894DEBF0FBECDBFED010895AA1BA2
:10478000BB1B51E107C0AA1FBB1FA617B70710F03C
:10479000A61BB70B881F991F5A95A9F7809590956E
:1047A000BC01CD010895FB01DC0104C08D91019095
:1047B000801921F441505040C8F7881B990B089587
:1047C000FB01DC0102C001900D9241505040D8F72E
:1047D0000895F999FECF92BD81BDF89A992780B5C9
:1047E0000895A8E1B0E042E050E00C942D24DC01F3
:1047F000A40FB51F4150504048F0CB01840F951FC6
:104800002E910E94082441505040D0F70895262F41
:10481000F999FECF92BD81BDF89A019700B40216B6
:1048200039F01FBA20BD0FB6F894FA9AF99A0FBE64
:1048300008950396272F0E9408240E940724252FFD
:104840000E940824242F0C9408240196272F0E94EC
:1048500008240C940724DC01CB01FC01F999FECF5C
:1048600006C0F2BDE1BDF89A319600B40D924150F8
:104870005040B8F70895F894FFCF66046604B60474
:10488000B6041B053705950495043C05AD05BC052C
:10489000BC052F17A3173717011705173B17091763
:1048A0003F174B1715179C1719174F171D1753173D
:1048B0007B1721175717821727175D1765170D17D5
:1048C0004317111747172B17611771178B179A1773
:1048D000FB163317AA1769186F185818631875183C
:1048E0007B18811824224C2235234C2235237F2229
:0848F000A0223523F722032367
:1048F8002E02010000000100000000000000040179
:104908000000000405000000000000280850011EF7
:104918000A1401CF1C041DFD1CF61C01E200E9006D
:10492800EA00B500B600B700CD008301CC008A01CB
:104938009201940121022302240225022602270261
:104948002A02B300B4006F0070009F01CB019F02E0
:10495800A002818283E200E900EA00B500B600B750
:1049680000CD008301CC008A019201940121022329
:104978000224022502260227022A02B300B4006F8D
:104988000070009F01CB019F02A002818283946680
:0A49980097C635313332366B02004A
:00000001FF
